:020000040000fa
:080000000001040000000000f3
:020000040000fa
:100008009a0100009a0100009a0100009a0100007c
:100018009a0100009a0100009a0100009a0100006c
:100028009a0100009a0100009a0100009a0100005c
:100038009a0100009a0100009a0100009a0100004c
:100048009a0100009a0100009a0100009a0100003c
:100058009a0100009a0100009a0100009a0100002c
:100068009a0100009a0100009a0100009a0100001c
:100078009a0100009a0100009a0100009a0100000c
:100088009a0100009a0100009a0100003214000051
:100098009a0100009a0100009a0100009a010000ec
:1000a8009a0100009a0100009a0100009a010000dc
:1000b8009a0100009a0100009a0100009a010000cc
:1000c8009a0100009a0100009a0100009a010000bc
:1000d8009a0100009a0100009a0100009a010000ac
:1000e8009a0100009a0100009a0100009a0100009c
:0800f8009a0100009a010000ca
:020000040000fa
:100108009a0100009a0100009a0100009a0100007b
:100118009a0100009a0100009a0100009a0100006b
:100128009a0100009a0100009a0100009a0100005b
:100138009a0100009a0100009a0100009a0100004b
:100148009a0100009a0100009a0100009a0100003b
:100158009a0100009a0100009a0100009a0100002b
:100168009a0100009a0100009a0100009a0100001b
:100178009a0100009a0100009a0100009a0100000b
:100188009a0100009a0100009a0100003214000050
:100198009a0100009a0100009a0100009a010000eb
:1001a8009a0100009a0100009a0100009a010000db
:1001b8009a0100009a0100009a0100009a010000cb
:1001c8009a0100009a0100009a0100009a010000bb
:1001d8009a0100009a0100009a0100009a010000ab
:1001e8009a0100009a0100009a0100009a0100009b
:0801f8009a0100009a010000c9
:020000040000fa
:100200000f9520000eff20000e0188000000000066
:10021000000020000000e000020032000001200089
:10022000200288000c0007006093210001002000dc
:1002300011000700000020000000e0000200320072
:100240000000020000000000861302000000000011
:100250000040da000000fe004440a90060052000d4
:100260000000e0000300320000002000a001880030
:100270004440a8000000060091018800800078003a
:100280000000eb0015003700e280400032a0b4000f
:100290009101ba00e280400032a0b4009102ba009d
:1002a000e280400032a0b4000002eb00472bde00e9
:1002b000f507b200602ce10004003a000059eb00a1
:1002c0008301e900fdff3e00040037006128e100e2
:1002d000010032000082eb00040007001101ba00a7
:1002e0000200e000e8ff3a00000006003159ba00c1
:1002f0008301e9000c0032002159ba008301e900b2
:10030000080032000400e00003003a00e2804000f0
:1003100032a0b400f5ff370011d9ba008301e9001b
:10032000faff3a008100e800e180400032a0b4000a
:10033000000006000040da000000fe000a00fa009b
:10034000e20f500022003e00744a8000e10f52008c
:1003500006003200e7212000a62120008421200091
:1003600065212000e08f530004003a00472120005f
:1003700006212000e4202000c520200000002800e5
:100380001500600003003a00800b78000700280089
:10039000958a7300054020009482620001003a00b3
:1003a00014a0a000820278000600370094037800b1
:1003b0000710b200fdff3200b103fb00070b78000d
:1003c0008502e900e08f5200f8ff3a00080037008c
:1003d00034002000b4bf9f00c0bf9f00d1bf9f006a
:1003e000e2bf9f006a8057001d0507006fb99700a4
:1003f000020078000080fa0000000600889fbe001e
:100400008a9fbe008c1f7800a3000700aa0033005b
:1004100003866c006450e1002e0032006420e1008d
:10042000330032006150e1002f0032006120e10012
:100430003100320085855500eb07b000090020002f
:1004400008042000050037000804440089844c009b
:100450000a0031000603430087834b00000153006c
:1004600081815b00f8ff33000203be000800a0009a
:100470000804440089844c00f6ff3900c639dd00c9
:100480008301730001003200130020008904d100b1
:100490000884d3000998a300050032000800a700d3
:1004a0000300a0008904d1000884d3008b05e80074
:1004b0008904d1000884d3000001eb000281d2003e
:1004c0003a00070001f0a1000cf0a70001f0a00025
:1004d000820037006420e100840032000801be0081
:1004e0000200be00f7ff37006120e1007f0032000c
:1004f0006000b800f3ff37000000200001f827007b
:10050000f0ff3700839f68000100e00002003d001b
:1005100060001000e08018000300e00002003d00d1
:1005200060011100e0811900a70007004f00e00002
:1005300002003b0060001000e08018000000060090
:100540000001be003f0007000470a70003f0a100f7
:1005500003f8a30013003a006509b100100032004f
:10056000090035006928e10002003500010028007b
:100570000000050000004000818048008502e9007d
:10058000fcff3a0000000600f88f4200050035002d
:100590008100d1000080d3008502e800fcff3a0012
:1005a000000006008000eb00000005008100200034
:1005b000618055000b003d000b00200061fe2f0004
:1005c0000100e1001d0034008281710061016400be
:1005d0008904d1000884d3000000e800faff3a0043
:1005e00071002000610064000300700002006000e0
:1005f0000900320061044400e0844c000988a50031
:10060000050032008b05e8006808e10002003a00ae
:100610008904d1000884d300f20f20000258e100c1
:1006200005003d00c75ddd00f907b2008980750057
:1006300008007800000006000bf827008b00780007
:1006400000000500c70ade00f107b200f50fb20096
:1006500008003200e1cf4200020032000170a00029
:1006600024000500810f700001003200040805001d
:1006700044000500810f700002003a0014000500dc
:100680008502e9000000400081c04800fcff3b00fb
:100690000170a000240005000004be00e9ff07006f
:1006a0000003be000405be000200be00e5ff070017
:1006b000844f7500000006000200be006450e10097
:1006c000050036006420e100020036000968a3003e
:1006d00001003a000800be000160a0004f0678004b
:1006e0004f05be004f04be0000000600f0ff2f00c3
:1006f000f1ff2700f9ff3700889fbe008a9fbe00e8
:100700008c1f7800e4ff0700ebff330003866c00ca
:100710006450e100240032006420e1002700320030
:100720006150e100220032006120e100210032002e
:100730008b854200eb07b1000134b800003ab800e5
:100740000804420089844a00013ab8000030b80029
:100750008880400009014a00040033000000400086
:1007600081804800020149008b05e900c909dd00cc
:10077000830170000100320013002000c814de0065
:100780004814dd004709de001200b200c808de0090
:100790000884700085ff070001f0a1000cf0a7009d
:1007a00001f0a000cdff37006120e100cfff320053
:1007b0000801be000200be00f7ff37006150e100f3
:1007c000fcff3a00c9ff37006022b8000602200093
:1007d0000000d0008180d2000482d2008582d20045
:1007e0000000a0000202520083825a000300310080
:1007f0000202420083824a000000a1000603e900d1
:10080000f3ff3a00000006000c00fa00889fbe00cb
:1008100000047800f4ff2700d4bf9f008004eb00a1
:1008200099bf9f0088bf9f00a8bf9f00240c200095
:10083000b4bf9f0078815700cfb0970070805700f9
:10084000070007000fba9700094a78000fba97000f
:10085000080052004f04be000080fa0000000600ad
:10086000ef03b000889fbe008a9fbe008c9fbe0031
:100870008e1f780080067800d1af9f00a2b79f003e
:100880000007eb0064033700dfa897008100e80051
:10089000d1af9f0054c2b300844f500006003a000d
:1008a000010278000006eb0001c3b30000c2b300f0
:1008b000b7c2b3000e0037003d0290000404b2003e
:1008c000040032001d027800004a7800840ee8001f
:1008d000050037000000fb008d0078005a03070078
:1008e000e10f40004c0332000e07e8004a033700d6
:1008f0008402780034437800d2c2b300824f5300a0
:100900000900320005003c00804f5300080032000f
:10091000874f53000c003a0007003700814f530007
:1009200009003a00060037000c30a000f0ff370045
:100930000c00a000eeff37000c10a000ecff370009
:100940000c20a000eaff37006202660001003200be
:100950000c00a10068026600010032000c20a1001a
:100960000602fb000403b100e90f52000c003e0038
:10097000050378000002eb006a22b900b603fb0011
:100980000703b10004824300860278009603fb004f
:100990000703b100e98f5300f7ff36000800370066
:1009a0000002eb00a7c2b300874f530004003a00d7
:1009b000afb1970043027800a3b79f008502e8001b
:1009c0000003eb0096b79f00e6c2b300954f1300fb
:1009d0000c003a000ce0a00064435300d54f130014
:1009e00003003200050378000000eb000900370027
:1009f000afb3970047047800a7b79f0098b79f0050
:100a00008502e80005037800090037006a00b90094
:100a10000080430086027800b603fb000703b100a4
:100a2000e98f5300f9ff360090b79f00f5ff3700bc
:100a3000b6427800d6af9f00cac6b3008acf520034
:100a4000250032000f003c0036c6b30086cf5200ae
:100a50009d00320004003c00e0cf5200f30232005f
:100a60006b4353000f00370046c6b30086cf5200d9
:100a7000170032006543430086cf5200b0003a00b1
:100a80001300370036c7b30086cf52002000320073
:100a900007003c006443530086cf5200150032002b
:100aa0000643e80086cf5200a5003a001400370044
:100ab00056c7b30086cf5200a800320063434300fc
:100ac00086cf52009e003a00e5779f000e00370067
:100ad000e5779f00a3003700f003660005012000c2
:100ae00001003200050028008c82720005067800a3
:100af000cfff3700e5779f000c60a000990037001a
:100b0000e5779f000c50a0000c70a0009500370006
:100b1000e5779f00afb59700cb027800abb79f0099
:100b2000b5b79f00e08f520002003a00a187200075
:100b3000b1b79f003fb397008002eb000100370080
:100b40008502e800e6c37a00e0cf5300fcff3a00dc
:100b5000c5b79f001fb19700e00f5100050032009c
:100b6000cfb19700830f510002003100820278005c
:100b7000c5b79f00cfb297000004eb00850f52006d
:100b800001003600050452006806660009c2b30081
:100b90000f003200290037003d0290000404b2002b
:100ba000040032001d027800094a7800840ee80033
:100bb000050037008d00780000022000a202070027
:100bc000e10f4000010032000e07e8000804e900d0
:100bd000e00f5400f0ff3a000084eb0017003700ec
:100be000bd0290000504b200090032009d037800a8
:100bf0008802780035437800864b7800870ee8003d
:100c000005047800e04f53000a003a001000370056
:100c1000880278003500fb00050478008d0078001c
:100c200084bf9f00880207000fba9700e10f4000c1
:100c3000070032000e07e8000500370008027800c0
:100c40003fb49700cfb497005fb59700efb597001a
:100c5000890278008504e900e08f5200e0ff3a0045
:100c6000b8b79f00c9b79f00dab79f00ebb79f00e6
:100c70000404780009c2b300e00f56000f003a00e8
:100c8000650237003d0290000404b2000400320007
:100c90001d027800094a7800840ee800050037003c
:100ca0008d0078000002200067020700e10f40007d
:100cb000010032000e07e8000804e900e00f5400cc
:100cc000f0ff3a0054023700afb0970041047800bb
:100cd000a1b79f00cfc4de00090578008a0578001f
:100ce0000800be000a01be004800de00c80add00a0
:100cf00000807200e0779f007003660009003200f8
:100d0000e04f500007003200e14f40000500320084
:100d1000f0779f00887f9f0026002000c6b79f00c5
:100d200003003700f8779f0017002000c7b79f0027
:100d300078fb2f0008844700b8b79f0085ff370075
:100d4000e5779f0069fb2f0089844700b9b79f00b2
:100d50001a002000cab79f007eff3700e5779f008a
:100d60000c0cb3008c027800050cb2003b003a007a
:100d7000e00f560005003d00afb297004501be00f0
:100d80004500be00a5b79f000f003700f0026600c7
:100d9000120032002fb497004803be00a8b79f008e
:100da000f69f9f0087a79f0098029000cfaade00c1
:100db00095a79f00a5a79f007f9897008fa09700f9
:100dc0001fa19700afa19700b0b79f00c1b79f00c8
:100dd000d2b79f00e3b79f000b003700afb097007a
:100de000c1027800a1b79f0005047800cfc4de00df
:100df000090578008a057800b8b79f00c9b79f0039
:100e0000dab79f00ebb79f003fb09700cfb09700d5
:100e10005fb19700efb19700e00f5000e08f5800ee
:100e2000e00f5900e08f590032003d003c00b30054
:100e30006000b8006011b8003fb49700cfb49700cd
:100e40005fb59700efb597000804500089845800fb
:100e50000a0559008b85590022003700e00f560023
:100e600005003d00afb297004501be004500be0041
:100e7000a5b79f000f003700f00266001200320095
:100e80002fb497004803be00a8b79f0096af9f00fd
:100e9000a7af9f008004eb00b9af9f000005eb00f7
:100ea000caaf9f001fa89700afa897003fa997005f
:100eb000cfa99700b0b79f00c1b79f00d2b79f00de
:100ec000e3b79f000b003700afb09700c102780076
:100ed000a1b79f0005047800090020000a00200047
:100ee0000b002000b8b79f00c9b79f00dab79f007a
:100ef000ebb79f009fb49700e08f54000d003a00bd
:100f00001a0020009ab79f003fb09700cfb097001b
:100f10005fb19700efb19700e00f5000e08f5800ed
:100f2000e00f5900e08f5900020032008000eb0012
:100f300091b79f000c017800020cb20082b79f00ad
:100f400005042000850f51003400320003003c00ee
:100f5000e00f51000800320048003700050820006b
:100f60008fb19700858f510014003200050c2000ce
:100f7000858f510041003a00a688200015c0b300bb
:100f80003600be003601be003fb49700cfb49700d4
:100f90005fb59700efb597000040e10001c8e100a0
:100fa00002d0e10003d8e100330039008542e800b7
:100fb000f4cf5200f2ff3a002f00370015c0b30003
:100fc00000012000010020006011b8003fb497002c
:100fd000cfb497005fb59700efb597000040e100f0
:100fe00001c8e10002d0e10003d8e100220039008d
:100ff000490020000000d0008180d2000281d20090
:101000008381d2008904e900faff3a008542e800b2
:10101000f0cf5200edff3a001700370015c0b300c3
:1010200080002000010020006011b8003fb497004c
:10103000cfb497005fb59700efb597000040e1008f
:1010400001c8e10002d0e10003d8e1000a00390044
:10105000390020000000d0008180d2000281d2003f
:101060008381d2008904e900faff3a008542e80052
:10107000f5cf5200edff3a00e5779f006f759700be
:101080008a02fb009fb597008b8f520002003d0043
:10109000eb779f00040037001fb09700850f5000ca
:1010a00001003d0095b79f00e00f520003003200a1
:1010b000e3026600010032000402e900050024009a
:1010c00085026600060032009fb09700810f520033
:1010d0000200340001025200010037000002eb0060
:1010e0006f7197008202fb008001eb00f3af9f005d
:1010f000850f52000200340085025200f5af9f00b8
:10110000640266003b003200e20266006102660093
:10111000e08f520011003200bd0290000504b200c1
:10112000080032009d027800b6c2b300e00f520002
:101130000100320006c3e800864a7800850ee80008
:1011400015003700b0022000e00f5200010032000d
:101150000080e8008d0078000c003700e00f52009e
:101160000e0032003d0290000404b200050032007f
:101170001d02780005c2b300054a7800840ee8001d
:10118000050037008d007800000220002e010700c6
:10119000e10f4000010032000e07e8007faa97002f
:1011a000e00f52004f00320008c3b30084047800ff
:1011b0003d0290000404b200040032001d027800d9
:1011c000084a7800840ee800050037008d0078009a
:1011d000000320001c010700e10f40000100320065
:1011e0000e07e8008904e900f1ff3a00f9af9f001b
:1011f0003c003700ffaa9700e08f52001400320035
:101200006802660012003a0008c2b3008504780044
:101210003d0290000404b200040032001d02780078
:10122000084a7800840ee800050037008d00780039
:101230000002200004010700e10f4000010032001d
:101240000e07e8008904e900f1ff3a00f9af9f00ba
:10125000e202660061026600e08f52001100320077
:10126000bd0290000504b200080032009d02780023
:10127000b6c2b300e00f52000100320006c3e8001e
:10128000864a7800850ee80015003700b00220007d
:10129000e00f5200010032000080e8008d0078006d
:1012a0000c003700e00f52000e0032003d029000ab
:1012b0000404b200050032001d02780005c2b3002c
:1012c000054a7800840ee800050037008d0078009c
:1012d00000022000dc000700e10f400001003200a6
:1012e0000e07e8001fb397000602e900c223dd00e5
:1012f000c7a79f006323b90006047800b8a79f0022
:101300004322dd002588200085024200e5af9f00d2
:10131000f0046600e99f9f000c0578000a02b20005
:10132000da9f9f00a30037009fb597008b05e90067
:101330009bb79f000fb0970001042000810f500061
:101340007300320003003c00e00f50000800320040
:101350007e003700040820000fb19700840f510071
:1013600056003200040c2000840f510077003a0030
:10137000e00f56001f003d00efa997003304be00a8
:101380002305be000802be000a03be003fb097005e
:10139000cfb097005fb19700efb19700e30107006e
:1013a000e0779f000000fb00cf80de0001017800a5
:1013b000820178000802be000a03be004402070052
:1013c0003fb29700cfb297005fb39700efb397009b
:1013d0000002520081825a0002035b0083835b009b
:1013e000b4b79f00c5b79f00d6b79f00e7b79f006f
:1013f0002e003700ef9a9700e08f52002200320053
:101400003fb29700cfb297006fab97003604be0093
:101410002605be000801be000400be0084bf9f0078
:10142000f5b79f00e8fc0700e0779f000000fb0095
:10143000cf80de000801be000b0107000fba970045
:10144000ffb297000004520081845a00d8a79f0081
:10145000e9a79f008004eb00f9a79f000005eb00bf
:101460008aaf9f005fa09700efa097007fa1970031
:101470008fa99700b0b79f00c1b79f00d2b79f0058
:10148000e3b79f0009003700efa89700110278002a
:101490003fb19700110009000481d800a40020008a
:1014a000110009000480d800e1779f00ef719700d8
:1014b0000343b000e3779f002400370094862000a8
:1014c000df9a9700e08f52000100320084852000ef
:1014d0003fb09700cfb097005fb19700efb1970092
:1014e0004fa397000603e900050033008301d100f4
:1014f0000281d3008180d3000080d300f9ff370040
:101500006f00600064407800e0779f000f003700b4
:101510003fb29700cfb297005fb39700efb3970049
:101520003fa497000804e900050033008703d100b9
:101530000683d3008582d3000482d300f9ff3700ed
:10154000674262000443b000e4779f003d029000d0
:101550000404b200070032009d0278006f72970009
:10156000844a7800850ee800e04f520007003a00f8
:1015700007003700ef7497000900fb008d0078002a
:1015800031000700e10f4000010032000e07e800c3
:101590004fa5970064055500caa79f00bfa59700f7
:1015a000e3855500bba79f006fa897006800500017
:1015b000e0af9f009fb09700e08f50005aff3a00c5
:1015c00068066600140032007fa99700e00f510002
:1015d0001100340008c2b300820478003d0290007c
:1015e0000404b200040032001d027800084a7800aa
:1015f000840ee800050037008d007800000220000e
:1016000011000700e10f4000010032000e07e80062
:101610008904e900f1ff3a00dfa997001340780040
:10162000e0779f00e04f500097fc3a000e007800f2
:101630004f0778004f06be004f05be004f04be00a6
:10164000ef03b10000000600889fbe00010478008f
:1016500038029000e20262008084eb003b0032001e
:10166000040378000620b2009802900002003a00bd
:10167000e08f520035003a000490a0003404980036
:1016800080047800f90fb200e08f520002003a00a7
:10169000a8029000050c7800ea8f540005003a007b
:1016a0000408b20003003a0088007800d00020004f
:1016b000e5ff070018029000d8029000850f520045
:1016c0000b0032000402e8001404980018027800ad
:1016d000094a7800040ce80015c0b3008494200087
:1016e000054a7800ea8f540018003a0005003700d8
:1016f000880078000940780017000700800478000f
:1017000012003700380290000410b2000f003200bf
:1017100018019000a80090004800900007fb070007
:1017200018029000840f500004003200380290002c
:101730000403b300340498008084eb000002eb0043
:101740001404980028029000040c78000900780026
:101750004f04be00000006000200fa00889fbe0091
:10176000a0ff9f00010478003802900084027800f6
:101770000504b200020032000000fb003500370013
:10178000e202620005003a000403b300340498004a
:10179000150498000080eb002e003700d80490005c
:1017a000e08f540006003a0012002000e680570047
:1017b00048009000e1fa0700190498002300370060
:1017c000a8029000e08f520008003a00b594200073
:1017d00025049800050c7800250020005504980089
:1017e000150498000430a0003404980018019000fb
:1017f000a800900048009000d0fa0700280290004e
:101800008082eb0015049800affa9700054a780033
:10181000040ce8002ffa9700ea4f52000b003a0040
:10182000380290000410b200080032001801900045
:10183000a800900048009000c0fa07000002eb00ea
:1018400014049800a8029000050c78002ffa970065
:101850000400fb004f04be000080fa0000000600f8
:1018600000c0da0000000600020ab900001bb9003f
:101870000200b80081004200810043000000060021
:10188000889fbe008a9fbe003004be002005be00b7
:101890000404440085844c0006054d0087854d00f6
:1018a0000898be000a90be000440e10005c8e100af
:1018b00006d0e10007d8e1000200310068004000d6
:1018c0001008e8004f05be004f04be0000000600ef
:1018d0001000fa00889fbe008a9fbe000605be0069
:1018e0000404be003002be002003be00c4b79f0047
:1018f000d5b79f00e6b79f00f7b79f0008025200d8
:1019000089825a000a035b008b835b0084bf9f00bf
:1019100095bf9f00a6bf9f00b7bf9f000498be0061
:101920000698be00110020004fb29700dfb297006a
:101930006fb39700ffb397000820e10009a8e1000a
:101940000ab0e1000bb8e100010039008000eb00b3
:10195000108810004f05be004f04be000080fa0042
:10196000000006001400fa00889fbe008a9fbe0097
:101970008c9fbe003f0007000605be000404be00a9
:101980000006eb00ccb79f00bcb79f00acb79f0030
:101990009cb79f008cb79f000d0420004fb39700a9
:1019a000bfb29700860343002fb29700e00f5300a9
:1019b00004003d003d0007000f004000b0ff07009d
:1019c00003003700390007000f004000c0ff070088
:1019d000cfb2970095bf9f00e08f520009003500fd
:1019e0002b00070014002000050020006033b80021
:1019f0000000720081807200020173008381730015
:101a00001c0007000c06e8008d0f5600e3ff3a00ab
:101a10001fba9700e00f520005003d000802be000b
:101a20000a03be0000fe2f000f00400094ff0700d5
:101a30004faa9700e00f520008003a000fb4970039
:101a40009fb497002fb59700bfb59700d8b79f00f8
:101a5000e9b79f00fab79f008bbf9f000c000700fb
:101a60004f06be004f05be004f04be000080fa00c6
:101a700000000600010007000000060090b79f006c
:101a8000a1b79f00b2b79f00c3b79f000000060038
:101a900001000700000006001fb09700afb09700dc
:101aa0003fb19700cfb19700000006004f2bde003a
:101ab00086837300a7b79f004f23de008582420014
:101ac0008682720095b79f00ffaa97004f2bde0019
:101ad000040242000602720084b79f006faa9700ba
:101ae0004f23de008582420086827200f5af9f00a0
:101af000e9ff07004f18de000402420000027200f6
:101b0000e4af9f00e4ff0700000040008180480030
:101b10000201490083814900d8ff07000802be0086
:101b20000a03be0000fe2f0000000600881f780098
:101b300018002000881f78008aff07008f87e900bf
:101b40004f04780000000600801feb0085ff0700af
:101b50008f87e90000000600889fbe008a9fbe00b4
:101b6000e00f5000e08f5800e00f5900e08f59005f
:101b70000c003d006044b8006055b80000005400ff
:101b800081805c0002015d0083815d0018002000ff
:101b90001500070008003d00180007000004eb00d6
:101ba000050037000004eb000f00070002003d00b5
:101bb0001200070018002000dcff0700e00f5400af
:101bc000060032006022b8006033b8000000520006
:101bd00081805a0002015b0083815b004f05be00db
:101be0004f04be0000000600e00f5200e08f5a00d4
:101bf000e00f5b00e08f5b00000006006044b8006f
:101c00006055b8000402540085825c0006035d0044
:101c100087835d0000000600889fbe008a9fbe008b
:101c20008c1f7800e00f5000e08f5800e00f590043
:101c3000e08f59000d003d006044b8006055b800c9
:101c40000000540081805c0002015d0083815d0022
:101c50001c0020000820e10009a8e1000ab0e10012
:101c60000bb8e1000d003d00080037000006eb0056
:101c7000e00f5200e08f5a00e00f5b00e08f5b0046
:101c800006003d006044b8006055b80004025400ee
:101c900085825c0006035d0087835d00aaff070064
:101ca000e00f5600060032006022b8006033b80032
:101cb0000000520081805a0002015b0083815b00ba
:101cc0004f0678004f05be004f04be00000006001e
:101cd000889fbe008a9fbe008c1f78000006eb0024
:101ce000e00f5000e08f5800e00f5900e08f5900de
:101cf00007003d006044b8006055b8000000540083
:101d000081805c0002015d0083815d001c00200079
:101d1000e00f5200e08f5a00e00f5b00e08f5b00a5
:101d200007003d006044b8006055b800040254004c
:101d300085825c0006035d0087835d000c00a200c5
:101d40000c000700e00f5600060032006022b800c9
:101d50006033b8000000520081805a0002015b002d
:101d600083815b004f0678004f05be004f04be0024
:101d700000000600889fbe008a9fbe008c9fbe00a8
:101d80000404b8000506b8008904460060854e00ca
:101d90000606b8000a054600e0854e000706b800b2
:101da0008b054600040eb800890446000a854e00e3
:101db000e0854d00050eb8000a0546008b854e00f3
:101dc000060eb8008b0546000416b8000a0546004a
:101dd0008b854e000516b8008b054600041eb80022
:101de0008b0546000800be000a01be004f06be007b
:0c1df0004f05be004f04be0000000600be
:020000040000fa
:101dfc00302e0000204300006f6e00007472000053
:101e0c006f6c0000003100002e200000506c0000b0
:101e1c00616e000074610000004300006f6e0000f2
:101e2c00747200006f6c0000005000006c610000c8
:101e3c006e740000610000004f70000063690000c8
:101e4c006f6e0000206900006e6300006f7200006e
:101e5c007265000063740000610000002025000022
:101e6c007500000020250000753a00002575000063
:101e7c000050000061720000616400006f000000ff
:101e8c00456e0000206d00006f760000696d00004b
:0c1e9c00696500006e7400006f0000001b
:020000040000fa
:101ea8000000fa00c6c2a900cde2a900d902a90023
:101eb8008d06070010c0b3000e0107008606070054
:101ec80000ccb3000b0107007f06070080c0b300f9
:101ed800080107006600070000c2b30005010700fb
:101ee8006300070080c2b30080000700600007009d
:101ef80080c0b3007d0007005d00070010c0b3007c
:101f08007a0007005a00070060c0b3007700070096
:101f18005700070056000700f0c0b3007300070021
:101f2800530007000080fa00000006000000fa00d5
:101f380010c0b3006d0007004d0007000080fa00d4
:101f4800000006000000fa0020c0b3006700070088
:101f5800470007000080fa00000006000000fa00b1
:101f680000c8b30061000700410007000080fa00c4
:101f7800000006000000fa0080cab3005b000700fa
:101f88003b0007000080fa00000006000200fa008b
:101f9800000f780006003700350007001e027800a1
:101fa80014427800044078001b0107001e0fe80067
:101fb8001e02780014427800e04f5200f6ff3a0003
:101fc8000080fa00000006000000fa0000c1b3001b
:101fd80046000700260007000080fa0000000600ff
:101fe8000000fa0040c1b3004000070020000700cd
:101ff8000080fa00000006000000fa0080c1b3006b
:102008003a0007001a0007000080fa0000000600e6
:102018000000fa00e0c1b300340007001400070014
:102028000080fa00000006000000fa00c0c0b300fb
:102038002e0007000e0007000080fa0000000600ce
:102048000000fa00e0c0b3002800070008000700fd
:102058000080fa00000006000000fa00f0c0b3009b
:1020680022000700020007000080fa0000000600b6
:102078000200fa0014c0b300044f7800d262a8002e
:10208800d242a800d222a800d202a8000a0607005d
:10209800d1e2a900dd02a80007060700060607002e
:1020a8000c003700cac2a800030607000206070092
:1020b800a41680004322de0061426200044f7800cb
:1020c800fd050700fc050700cac2a900fa050700bc
:1020d800f90507001e427800e04f5200f1ff3a0070
:1020e800dd02a9000080fa00000006000200fa00e4
:1020f800004f7800d1e2a900dd02a900d262a90050
:10210800d242a900d222a900d202a9009e02fb0055
:10211800040820000482620047a2de00044278001e
:10212800614262000482fb00610262004322dd001a
:10213800b616800075ff2f00850263000502720045
:10214800b41688009e02fb0004042000048262008a
:1021580046a2de0004427800614262000482fb006d
:10216800610262004222dd00b6168000b5ff2f0032
:102178008502630005027200b41688009e02fb0007
:10218800040220000482620045a2de0004427800b6
:10219800614262000482fb006102620004024200a4
:1021a800b6168000d5ff2f00850263000502720075
:1021b800b41688001e02fb007002620044a2de0012
:1021c80004427800614262000482fb0061026200fe
:1021d800b6168000e5ff2f00850263000502720035
:1021e800b4168800b4050700cac2a800b2050700e3
:1021f800cac2a900b0050700d1e2a900dd02a90002
:102208001e02fb006802620043a2de00044278005e
:10221800614262000482fb00610262004322dd0029
:10222800b616800075ff2f00850263000502720054
:10223800b41688001e02fb006402620042a2de009f
:1022480004427800614262000482fb00610262007d
:102258004222dd00b6168000b5ff2f00850263001c
:1022680005027200b41688001e02fb0062026200ba
:102278000482d10004427800614262000482fb00bb
:102288006102620004024200b6168000d5ff2f00ea
:102298008502630005027200b41688001e427800a9
:1022a8006142620061426200614262000482fb0096
:1022b80061026200b6168000e5ff2f008502630008
:1022c80005027200b41688007b050700cac2a80080
:1022d80079050700cac2a90077050700d262a800dd
:1022e800d242a800d222a800d202a8000080fa0098
:1022f800000006000200fa00004f7800d1e2a900b1
:10230800dd02a900d262a900d242a900d222a90006
:10231800d202a9009e02fb00040820000482620089
:1023280047a2de0004427800614262000482fb009a
:10233800610262004322dd00b616800075ff2f009f
:102348008502630005027200b41688009e02fb0035
:10235800040420000482620046a2de0004427800e1
:10236800614262000482fb00610262004222dd00d9
:10237800b6168000b5ff2f008502630005027200c3
:10238800b41688009e02fb0004022000048262004a
:1023980045a2de0004427800614262000482fb002c
:1023a8006102620004024200b6168000d5ff2f00c9
:1023b8008502630005027200b41688001e02fb0045
:1023c8007002620044a2de000442780061426200aa
:1023d8000482fb0061026200b6168000e5ff2f0050
:1023e8008502630005027200b416880032050700f2
:1023f800cac2a80030050700cac2a9002e050700f6
:10240800d262a800d242a800d222a800d202a80014
:102418000080fa00000006000200fa00004f780071
:10242800d1e2a800dd02a900d262a900d242a90027
:10243800d222a900d202a9009e02fb0004082000b3
:102448000482620047a2de00044278006142620012
:102458000482fb00610262004322dd00b6168000a0
:1024680075ff2f008502630005027200b41688000c
:102478009e02fb00040420000482620046a2de00e3
:1024880004427800614262000482fb00610262003b
:102498004222dd00b6168000b5ff2f0085026300da
:1024a80005027200b41688009e02fb000402200098
:1024b8000482620045a2de000442780061426200a4
:1024c8000482fb006102620004024200b61680002a
:1024d800d5ff2f008502630005027200b41688003c
:1024e8001e02fb007002620044a2de000442780073
:1024f800614262000482fb0061026200b61680003d
:10250800e5ff2f008502630005027200b4168800fb
:10251800e9040700cac2a800e7040700cac2a90064
:10252800e5040700d1e2a800dd02a9001e02fb00b5
:102538006802620043a2de00044278006142620041
:102548000482fb00610262004322dd00b6168000af
:1025580075ff2f008502630005027200b41688001b
:102568001e02fb006402620042a2de000442780000
:10257800614262000482fb00610262004222dd00c7
:10258800b6168000b5ff2f008502630005027200b1
:10259800b41688001e02fb00620262000482d100a9
:1025a80004427800614262000482fb00610262001a
:1025b80004024200b6168000d5ff2f008502630092
:1025c80005027200b41688001e427800614262005b
:1025d80061426200614262000482fb0061026200a3
:1025e800b6168000e5ff2f00850263000502720021
:1025f800b4168800b0040700cac2a800ae040700d9
:10260800cac2a900ac040700d262a800d242a8003e
:10261800d222a800d202a800dd02a900d1e2a900b6
:102628000080fa00000006000a00fa00300798004f
:10263800410798004e029000e60f52001f003c0030
:1026480004c4b300244798004e0290000442780066
:10265800350020000522dd0034479800ae42900086
:102668003e42900004c2420068424200444798003b
:102678004e4090009dfe07000002eb00040f78001a
:102688000002eb00040f7800070037001e027800f4
:10269800be02900004824200144278000440780090
:1026a8005dff07001e0fe8001e027800e70f5200ca
:1026b800f6ff340023fe0700010037000000000089
:1026c8000080fa00000006000400fa0010079800d5
:1026d8001e029000e60f520007003c001e02900008
:1026e800044278000442e800044f78001e40780055
:1026f80049ff070001003700000000000080fa00d1
:10270800000006000200fa0065020700e4fd070069
:102718009c010700620207003c030700e0ef280065
:102728001afe070013fe070090f0280017fe0700a6
:102738000082eb00040f78001400370062020700e3
:1027480000027800040f7800f8fd07001e027800e8
:10275800e00f520003003200e10f52000500320082
:102768000800370030f1280008fe0700280007009d
:1027780006003700b0f1280004fe07000d0007002e
:102788000200370020f2280000fe07001e02780031
:10279800e00f5200030032001e027800e10f5200e1
:1027a800e6ff3a000002eb00040078000080fa001f
:1027b800000006000000fa00843e20004440880023
:1027c800840c2000544088000b00370045408000ee
:1027d80054408000848f52000200310077000700c7
:1027e800050037004540800054408000848f520027
:1027f800010036007a000700454080005440800000
:10280800848f5200f1ff3a0000000000faff370001
:102818000000fa00a8000700c4fd07000000eb0054
:10282800b100070010002000af00070030002000b2
:10283800ad000700cffd070050002000aa000700e8
:1028480040002000a800070020002000a600070084
:102858000000eb00f5000700ffff3700801f78003d
:10286800849fbe00869fbe003400f8000000200050
:10287800a00188000000fa00b41c80006102620018
:10288800e00f520046003200041c80004222de00a5
:10289800f57f200005026200e4418800241c8000c6
:1028a800044278006f4262000482fb00f441880011
:1028b800f44180006123b9000082eb008082eb00c4
:1028c8000602420087824a007600200007002000a6
:1028d800860f5200878f5a002e003e0004600100c8
:1028e80027003700210037001c003700160037008a
:1028f800110037000b0037000600370000003700d2
:10290800641c80004822de0004427800040078003d
:1029180047e8b700641c800004427800040078008f
:1029280046e8b700541c80004822de0004427800c4
:102938000400780045e8b700541c80000442780081
:102948000400780044e8b700441c80004822de00f8
:10295800044278000400780043e8b700441c800073
:10296800044278000400780042e8b700341c800074
:102978004822de00044278000400780041e8b700ed
:10298800341c8000044278000400780040e8b70056
:1029980000000000000000008ee3a9009603a900d3
:1029a8008760a9000080fa003400f9004f03be00d8
:1029b8004f02be004f007800004006000000fa00f9
:1029c800444080000402e80044408800c603070031
:1029d800c50307000a0007000080fa00000006008f
:1029e8000000fa00444080000402e90044408800e6
:1029f800bd030700020007000080fa00000006007f
:102a08000000fa0044408000841f780044f3280046
:102a1800841f78008082200079f70700e487570038
:102a280042fd07008082200058fd07000080fa0060
:102a3800000006000200fa00000f78001e0278006d
:102a480014027800544088000080fa000000060054
:102a58000000fa004440800024418800454080007e
:102a68005440800004826a0004f0a7000402ea00cf
:102a78000402e9004f22de000442780004007800d6
:102a880026e8b70044822000420020008400780035
:102a980050002000000107000080fa000000060036
:102aa8000400fa00100798001e0090000e000700ae
:102ab8000080fa00000006000000fa0004802000f0
:102ac8008002eb0035029800048020008002eb00b1
:102ad80025029800048020008002eb00150298006f
:102ae8000080fa00000006000c00fa005007980069
:102af8005e029000110020000400780052020700d6
:102b080004802000940278000480200034029000a1
:102b180004024200048242005e009000000a78002d
:102b280004802000340290008402e8006400200041
:102b3800110009008482d80001027800840278001c
:102b480004802000350298000480200014029000c0
:102b58008402e80004802000150298000480200008
:102b6800b40290000480200024029000851f7800a1
:102b7800841f780084f32800841f78000e007800f2
:102b88001ff70700e68757000e007800fffc0700d4
:102b98000080fa00000006000200fa003700070073
:102ba80000427800e04f5200020032000002eb00c1
:102bb8001b00370004802000940278000480200065
:102bc800240290000402420004824200140f78009c
:102bd80004802000240290008402e80064002000a1
:102be800110009008482d80001027800840278006c
:102bf8000480200025029800048020001402900020
:102c08008402e90004802000150298001e02780062
:102c18008000eb00040078000b0207001e02780019
:102c2800040078000080fa00000006000400fa00a2
:102c3800100798000480200024009000000f7800fe
:102c4800060037009e02e800640020001100090019
:102c58008482d80001027800040f780004802000e4
:102c6800340290009e0f5200f6ff3e000042eb0037
:102c7800044078000080fa00000006000000fa0016
:102c8800048020001402900004f0a7000402ea0067
:102c98000402e9004f22de00044278000440780074
:102ca8000080fa00000006000200fa00000f780019
:102cb8001e027800220020008400780040002000d6
:102cc800750007000080fa00000006000200fa0004
:102cd800000f78001e027800140278000442780081
:102ce8000002fd0057e8b7000002fd001e02780050
:102cf80024429000e04f520011003200dfff07002d
:102d080000427800e04f52000500320014c0b300c2
:102d18000002fd0056e8b7000002fd000c00370075
:102d28009dff07000002780064408800644080002e
:102d380074408800e0802000dbff070004003700b3
:102d48000042eb000002fd0056e8b7000002fd005b
:102d58006485200014427800e04f520004003200dd
:102d680072fc0700f0f3280088fc07000300370016
:102d78006efc070060f4280084fc07000080fa005d
:102d8800000006000000fa00841c80000480a100f6
:102d98000490a10004a0a000841c8800000000008a
:102da800851c8000040e2000848262000408200034
:102db800848f5200faff3a009163a800951c8000a6
:102dc80004fc2f0004826200941c8800941c80007c
:102dd8000460a1000470a100941c8800a41c800059
:102de8000400a1000410a1000420a100a41c880074
:102df800a41c80000430a0000440a0000450a100de
:102e0800a41c8800a41c80000480a0000490a100d9
:102e180004a0a100a41c88006e63a9008ee3a90089
:102e28008e43a9008519800034002e0004826200b8
:102e3800841988003003a8000518800034002e008b
:102e480004826200041888000003a9008f60a800ab
:102e58008760a9000002eb00c41c88009803a80042
:102e68009603a900841c80000480a1000490a1009e
:102e780004a0a100841c880000000000851c8000bc
:102e8800040e200004826200e00f5200fbff3a00ab
:102e98000080fa00000006000600fa00000f780023
:102ea80011079800220798006523a9006003a9006c
:102eb8001e02780004427800f443b200f443b200e2
:102ec800f443b2008482fb00f40320000482620011
:102ed8004222dd00061b800035f02f0085026300ca
:102ee80005027200041b8800047c20001e02620098
:102ef8004622de00044278007f4262000482fb0022
:102f08004b22dd00061b8000f57f20008502630050
:102f180005027200041b88002e029000044278000b
:102f28006f4262000482fb006f0262004322dd00f0
:102f3800261b800075f82f008502630005027200c9
:102f4800241b88002e0290006123b8000082eb0049
:102f58008082eb000602420087824a007600200049
:102f680007002000860f5200878f5a0044003e0059
:102f7800046001003a0037003300370029003700a9
:102f8800220037001800370011003700070037000b
:102f9800000037001e0290006702420014427800c9
:102fa8000482fb004822dd00641b8800651b80004a
:102fb80004f02f00848262001e0290006602420024
:102fc800144278000482fb0005027200641b88002a
:102fd8001e02900065024200144278000482fb0041
:102fe8004822dd00541b8800551b800004f02f0088
:102ff800848262001e02900064024200144278003b
:103008000482fb0005027200541b88001e02900017
:1030180063024200144278000482fb004822dd006b
:10302800441b8800451b800004f02f008482620046
:103038001e0290000482e800144278000482fb001b
:1030480005027200441b88001e0290000402e8007a
:10305800144278000482fb004822dd00341b8800fb
:10306800351b800004f02f00848262001e0290004d
:10307800144278000482fb0005027200341b8800a9
:103088006e63a80000000000741b800068026200e4
:10309800e00f5200fcff3a000080fa000000060032
:1030a8000000fa00c602a900c622a900c642a9006b
:1030b800d202a800d222a800d242a800d262a80058
:1030c8000080fa00000006000200fa000082eb000f
:1030d800040f780003003700090007000002780099
:1030e800040f78001e027800e00f5200faff350046
:1030f8001e027800040078000080fa000000060034
:103108000000fa00ca02a900ca22a800ca42a80000
:10311800e5010700a416800061026200e00f52007a
:1031280002003a000002eb004b003700a4168000b2
:1031380062026200e00f520002003a0034002000f0
:1031480045003700a416800064026200e00f5200b8
:1031580002003a00640020003f003700a4168000f7
:1031680068026200e00f520002003a00940020005a
:1031780039003700ca02a800ca22a900ca42a8001a
:10318800c9010700a416800061026200e00f520026
:1031980002003a00140020002f003700a416800017
:1031a80062026200e00f520002003a004400200070
:1031b80029003700a416800064026200e00f520064
:1031c80002003a007400200023003700a416800093
:1031d80068026200e00f520002003a00a4002000da
:1031e8001d003700ca02a800ca22a800ca42a900c6
:1031f800ad010700a416800061026200e00f5200d2
:1032080002003a002400200013003700a4168000b2
:1032180062026200e00f520002003a0054002000ef
:103228000d003700a416800064026200e00f52000f
:1032380002003a008400200007003700a41680002e
:1032480068026200e00f520002003a00b400200059
:10325800010037000082eb00040078000080fa00cb
:04326800000006005c
:020000040000fa
:10326c00000800004a000000000000004a080000ae
:10327c000e00000002000000c8002c0001900100ac
:10328c00f40158000220030001010000580800005e
:10329c00ca00000002000000303132003334350027
:1032ac00363738003941420043444500460030006f
:1032bc0031323300343536003738390061626300ff
:1032cc006465660000286e00756c6c0029000000b7
:1032dc00010000000000000000000a0000000000d7
:1032ec00000000000064000000000000000000006e
:1032fc00e8030000000000000000100027000000a0
:10330c000000000000a0860001000000000000008a
:10331c0040420f0000000000000080009698000062
:10332c00000000000000e100f505000000000000b6
:10333c0000ca9a003b00000000000000e40b54009f
:10334c00020000000000e8007648170000000000b2
:10335c000010a500d4e8000000000000a0724e0090
:10336c0018090000000040007a10f3005a00000019
:10337c000080c600a47e8d000300000000c16f0019
:10338c00f2862300000000008a5d7800456301008e
:10339c0000006400a7b3b600e00d000000e889004f
:1033ac000423c7008a000000220900002600000048
:1033bc000200000049090000004909000900000052
:1033cc00000200004b090000004b09000e02010036
:1033dc0000000000000000000000000006020200d7
:1033ec00000000002209000048090000060000004f
:1033fc00000000004e090000020000000200000066
:08340c000100000000000000b7
:020000040000fa
:103414000000fa00d802a900d822a900d842a900c5
:10342400d862a900d882a900d8a2a900dc02a90008
:10343400dc22a900dc42a900dc62a900dc82a9002c
:10344400dca2a9000080fa00000006000400fa00d3
:10345400000f7800110798001e027800cfa2de004a
:103464005600200007002000860f5200878f5a0064
:103474004e003e0004600100050037000f003700d5
:103484001a00370025003700300037003b003700b2
:103494001e02900004427800614262000482fb0034
:1034a40061026200e6168000e5ff2f0085026300da
:1034b40005027200e41688003c0037001e029000ea
:1034c40004427800614262000482fb0061026200ef
:1034d40004024200e6168000d5ff2f008502630037
:1034e40005027200e4168800300037001e029000c6
:1034f40004427800614262000482fb0061026200bf
:103504004222dd00e6168000b5ff2f00850263002d
:1035140005027200e4168800240037001e029000a1
:1035240004427800614262000482fb00610262008e
:103534004322dd00e616800075ff2f00850263003c
:1035440005027200e4168800180037001e0290007d
:1035540004427800614262000482fb00610262005e
:103564004422dd00e6168000f5fe2f00850263008c
:1035740005027200e41688000c0037001e02900059
:1035840004427800614262000482fb00610262002e
:103594004522dd00e6168000f5fd2f00850263005c
:1035a40005027200e4168800000000000080fa00a2
:1035b400000006000000fa00c6e2a9000080fa003c
:1035c400000006000000fa00cae2a9000080fa0028
:1035d400000006000000fa00cae2a8000080fa0019
:1035e400000006000000fa005516800004082000c0
:1035f4000482620004f0a7000402ea000402e90065
:103604004f22de0004427800044078000080fa0073
:10361400000006001800fa00200f9800310f9800ef
:103624002e0a9000050020000401be00006a280054
:1036340011002000b2f307000002be004407980006
:10364400550798004e029000de0290008502d100da
:103654000482d3006407980075079800ae0a9000ae
:103664003e0a900004aab900040278000402d100c2
:1036740005002000040f9800150f98006022b80080
:10368400048fbe002a003700cae2a9006022b800f5
:1036940024079800350798000700370083000700c7
:1036a4002e029000be02900061024200e0824a00b5
:1036b40024079800350798002e039000be0390005d
:1036c4006e029000fe029000840f5300858f5b0011
:1036d400f2ff3900cae2a8006022b800240798006b
:1036e4003507980007003700700007002e0290008d
:1036f400be02900061024200e0824a002407980062
:10370400350798002e039000be0390006e029000cf
:10371400fe029000840f5300858f5b00f2ff390096
:1037240014002000050020001e0f42005e974a008e
:103734000e0a90009e0a90001e03be00840f5300e0
:10374400858f5b00d0ff39000080fa00000006007e
:103754000800fa00200798003107980002002000b2
:10376400032824002e009000be009000e1f307001f
:103774000002be000401be000000200011be2400af
:103784001df307000002be000400be006bf3070037
:103794000002be00040f78001e0278000402d1006b
:1037a400140798008c60a8008460a900a404800019
:1037b40004c0a10004d0a10004e0a000a404880077
:1037c4000002eb0024088800240880000440a100c3
:1037d4000450a000240888000421a9000002eb0082
:1037e400040888001e029000140888000080fa0073
:1037f400000006000000fa0005e1a8000080fa00bd
:10380400000006000000fa0005e1a9000002eb0038
:10381400040888000080fa00000006000000fa0096
:10382400f4f72f0044158800440020000415880094
:1038340074002000341588000002eb005415880041
:1038440024002000241588000002eb0014158800d1
:10385400a1e2a8000080fa00000006000200fa00bd
:103864000002eb00040f7800020037001b00070081
:103874001e0fe8001e027800f30f5200fbff340015
:10388400a022a9000000000004158000610262006b
:10389400e00f5200fcff32000414800004007800a2
:1038a4000080fa0000000600000006003106200037
:1038b4008100e900feff3a0000000600610c2000d0
:1038c4008100e900feff3a0000000600215c2000b0
:1038d4008100e900feff3a000000060001002c0010
:1038e4008100e900feff3a000000060001002c0000
:1038f4008100e900feff3a0001002c008100e9008c
:10390400feff3a0001002c008100e900feff3a00ae
:0439140000000600a9
:00000001FF
