:020000040000fa
:080000000001040000000000f3
:020000040000fa
:100008009a0100009a0100009a0100009a0100007c
:100018009a0100009a0100009a0100009a0100006c
:100028009a0100009a0100009a0100009a0100005c
:100038009a0100009a0100009a0100009a0100004c
:100048009a0100009a0100009a0100009a0100003c
:100058009a0100009a0100009a0100009a0100002c
:100068009a0100009a0100009a0100009a0100001c
:100078009a0100009a0100009a0100009a0100000c
:100088009a0100009a0100009a0100009a010000fc
:100098009a0100009a0100009a0100009a010000ec
:1000a8009a0100009a0100009a0100009a010000dc
:1000b8009a0100009a0100009a0100009a010000cc
:1000c8009a0100009a0100009a0100009a010000bc
:1000d8009a0100009a0100009a0100009a010000ac
:1000e8009a0100009a0100009a0100009a0100009c
:0800f8009a0100009a010000ca
:020000040000fa
:100108009a0100009a0100009a0100009a0100007b
:100118009a0100009a0100009a0100009a0100006b
:100128009a0100009a0100009a0100009a0100005b
:100138009a0100009a0100009a0100009a0100004b
:100148009a0100009a0100009a0100009a0100003b
:100158009a0100009a0100009a0100009a0100002b
:100168009a0100009a0100009a0100009a0100001b
:100178009a0100009a0100009a0100009a0100000b
:100188009a0100009a0100009a0100009a010000fb
:100198009a0100009a0100009a0100009a010000eb
:1001a8009a0100009a0100009a0100009a010000db
:1001b8009a0100009a0100009a0100009a010000cb
:1001c8009a0100009a0100009a0100009a010000bb
:1001d8009a0100009a0100009a0100009a010000ab
:1001e8009a0100009a0100009a0100009a0100009b
:0801f8009a0100009a010000c9
:020000040000fa
:100200000f8020000eff20000e018800000000007b
:10021000000020000000e000020032000001200089
:10022000200288000c00070020c1200001002000ef
:1002300011000700000020000000e0000200320072
:100240000000020000000000040c0200000000009a
:100250000040da000000fe004440a9000000200039
:100260000000e0000300320000002000a001880030
:100270004440a8000000060091018800800078003a
:100280000000eb0015003700e280400032a0b4000f
:100290009101ba00e280400032a0b4009102ba009d
:1002a000e280400032a0b4000002eb00472bde00e9
:1002b000f507b200602ce10004003a000059eb00a1
:1002c0008301e900fdff3e00040037006128e100e2
:1002d000010032000082eb00040007001101ba00a7
:1002e0000200e000e8ff3a00000006003159ba00c1
:1002f0008301e9000c0032002159ba008301e900b2
:10030000080032000400e00003003a00e2804000f0
:1003100032a0b400f5ff370011d9ba008301e9001b
:10032000faff3a008100e800e180400032a0b4000a
:10033000000006000040da000000fe00889fbe00ba
:100340008a9fbe008c1f7800a3000700aa0033001c
:1003500003866c006450e1002e0032006420e1004e
:10036000330032006150e1002f0032006120e100d3
:100370003100320085855500eb07b00009002000f0
:1003800008042000050037000804440089844c005c
:100390000a0031000603430087834b00000153002d
:1003a00081815b00f8ff33000203be000800a0005b
:1003b0000804440089844c00f6ff3900c639dd008a
:1003c0008301730001003200130020008904d10072
:1003d0000884d3000998a300050032000800a70094
:1003e0000300a0008904d1000884d3008b05e80035
:1003f0008904d1000884d3000001eb000281d200ff
:100400003a00070001f0a1000cf0a70001f0a000e5
:10041000820037006420e100840032000801be0041
:100420000200be00f7ff37006120e1007f003200cc
:100430006000b800f3ff37000000200001f827003b
:10044000f0ff3700839f68000100e00002003d00dc
:1004500060001000e08018000300e00002003d0092
:1004600060011100e0811900a70007004f00e000c3
:1004700002003b0060001000e08018000000060051
:100480000001be003f0007000470a70003f0a100b8
:1004900003f8a30013003a006509b1001000320010
:1004a000090035006928e10002003500010028003c
:1004b0000000050000004000818048008502e9003e
:1004c000fcff3a0000000600f88f420005003500ee
:1004d0008100d1000080d3008502e800fcff3a00d3
:1004e000000006008000eb000000050081002000f5
:1004f000618055000b003d000b00200061fe2f00c5
:100500000100e1001d00340082817100610164007e
:100510008904d1000884d3000000e800faff3a0003
:1005200071002000610064000300700002006000a0
:100530000900320061044400e0844c000988a500f1
:10054000050032008b05e8006808e10002003a006f
:100550008904d1000884d300f20f20000258e10082
:1005600005003d00c75ddd00f907b2008980750018
:1005700008007800000006000bf827008b007800c8
:1005800000000500c70ade00f107b200f50fb20057
:1005900008003200e1cf4200020032000170a000ea
:1005a00024000500810f70000100320004080500de
:1005b00044000500810f700002003a00140005009d
:1005c0008502e9000000400081c04800fcff3b00bc
:1005d0000170a000240005000004be00e9ff070030
:1005e0000003be000405be000200be00e5ff0700d8
:1005f000844f7500000006000200be006450e10058
:10060000050036006420e100020036000968a300fe
:1006100001003a000800be000160a0004f0678000b
:100620004f05be004f04be0000000600f0ff2f0083
:10063000f1ff2700f9ff3700889fbe008a9fbe00a8
:100640008c1f7800e4ff0700ebff330003866c008b
:100650006450e100240032006420e10027003200f1
:100660006150e100220032006120e10021003200ef
:100670008b854200eb07b1000134b800003ab800a6
:100680000804420089844a00013ab8000030b800ea
:100690008880400009014a00040033000000400047
:1006a00081804800020149008b05e900c909dd008d
:1006b000830170000100320013002000c814de0026
:1006c0004814dd004709de001200b200c808de0051
:1006d0000884700085ff070001f0a1000cf0a7005e
:1006e00001f0a000cdff37006120e100cfff320014
:1006f0000801be000200be00f7ff37006150e100b4
:10070000fcff3a00c9ff37006022b8000602200053
:100710000000d0008180d2000482d2008582d20005
:100720000000a0000202520083825a000300310040
:100730000202420083824a000000a1000603e90091
:08074000f3ff3a00000006007f
:020000040000fa
:100748000000fa00c6c2a900cde2a900d902a9009a
:100758002104070010c0b3000e0107001a040700a7
:1007680000ccb3000b0107001304070080c0b300de
:10077800080107006600070000c2b3000501070072
:100788006300070080c2b300800007006000070014
:1007980080c0b3007d0007005d00070010c0b300f3
:1007a8007a0007005a00070060c0b300770007000e
:1007b8005700070056000700f0c0b3007300070099
:1007c800530007000080fa00000006000000fa004d
:1007d80010c0b3006d0007004d0007000080fa004c
:1007e800000006000000fa0020c0b3006700070000
:1007f800470007000080fa00000006000000fa0029
:1008080000c8b30061000700410007000080fa003b
:10081800000006000000fa0080cab3005b00070071
:100828003b0007000080fa00000006000200fa0002
:10083800000f780006003700350007001e02780018
:1008480014427800044078001b0107001e0fe800de
:100858001e02780014427800e04f5200f6ff3a007a
:100868000080fa00000006000000fa0000c1b30092
:1008780046000700260007000080fa000000060076
:100888000000fa0040c1b300400007002000070044
:100898000080fa00000006000000fa0080c1b300e2
:1008a8003a0007001a0007000080fa00000006005e
:1008b8000000fa00e0c1b30034000700140007008c
:1008c8000080fa00000006000000fa00c0c0b30073
:1008d8002e0007000e0007000080fa000000060046
:1008e8000000fa00e0c0b300280007000800070075
:1008f8000080fa00000006000000fa00f0c0b30013
:1009080022000700020007000080fa00000006002d
:100918000200fa0014c0b300044f7800d262a800a5
:10092800d242a800d222a800d202a8009e03070043
:10093800d1e2a900dd02a8009b0307009a03070083
:100948000c003700cac2a8009703070096030700e7
:10095800a41680004322de0061426200044f780042
:100968009103070090030700cac2a9008e0307007d
:100978008d0307001e427800e04f5200f1ff3a0055
:10098800dd02a9000080fa00000006000200fa005b
:10099800004f7800d1e2a900dd02a900d262a900c7
:1009a800d242a900d222a900d202a9009e02fb00cd
:1009b800040820000482620047a2de000442780096
:1009c800614262000482fb00610262004322dd0092
:1009d800b616800075ff2f008502630005027200bd
:1009e800b41688009e02fb00040420000482620002
:1009f80046a2de0004427800614262000482fb00e5
:100a0800610262004222dd00b6168000b5ff2f00a9
:100a18008502630005027200b41688009e02fb007e
:100a2800040220000482620045a2de00044278002d
:100a3800614262000482fb0061026200040242001b
:100a4800b6168000d5ff2f008502630005027200ec
:100a5800b41688001e02fb007002620044a2de0089
:100a680004427800614262000482fb006102620075
:100a7800b6168000e5ff2f008502630005027200ac
:100a8800b416880048030700cac2a8004603070036
:100a9800cac2a90044030700d1e2a900dd02a900e7
:100aa8001e02fb006802620043a2de0004427800d6
:100ab800614262000482fb00610262004322dd00a1
:100ac800b616800075ff2f008502630005027200cc
:100ad800b41688001e02fb006402620042a2de0017
:100ae80004427800614262000482fb0061026200f5
:100af8004222dd00b6168000b5ff2f008502630094
:100b080005027200b41688001e02fb006202620031
:100b18000482d10004427800614262000482fb0032
:100b28006102620004024200b6168000d5ff2f0061
:100b38008502630005027200b41688001e42780020
:100b48006142620061426200614262000482fb000d
:100b580061026200b6168000e5ff2f00850263007f
:100b680005027200b41688000f030700cac2a80065
:100b78000d030700cac2a9000b030700d262a80030
:100b8800d242a800d222a800d202a8000080fa000f
:100b9800000006000200fa00004f7800d1e2a90028
:100ba800dd02a900d262a900d242a900d222a9007e
:100bb800d202a9009e02fb00040820000482620001
:100bc80047a2de0004427800614262000482fb0012
:100bd800610262004322dd00b616800075ff2f0017
:100be8008502630005027200b41688009e02fb00ad
:100bf800040420000482620046a2de000442780059
:100c0800614262000482fb00610262004222dd0050
:100c1800b6168000b5ff2f0085026300050272003a
:100c2800b41688009e02fb000402200004826200c1
:100c380045a2de0004427800614262000482fb00a3
:100c48006102620004024200b6168000d5ff2f0040
:100c58008502630005027200b41688001e02fb00bc
:100c68007002620044a2de00044278006142620021
:100c78000482fb0061026200b6168000e5ff2f00c7
:100c88008502630005027200b4168800c6020700d8
:100c9800cac2a800c4020700cac2a900c20207004b
:100ca800d262a800d242a800d222a800d202a8008c
:100cb8000080fa00000006000200fa00004f7800e9
:100cc800d1e2a800dd02a900d262a900d242a9009f
:100cd800d222a900d202a9009e02fb00040820002b
:100ce8000482620047a2de0004427800614262008a
:100cf8000482fb00610262004322dd00b616800018
:100d080075ff2f008502630005027200b416880083
:100d18009e02fb00040420000482620046a2de005a
:100d280004427800614262000482fb0061026200b2
:100d38004222dd00b6168000b5ff2f008502630051
:100d480005027200b41688009e02fb00040220000f
:100d58000482620045a2de0004427800614262001b
:100d68000482fb006102620004024200b6168000a1
:100d7800d5ff2f008502630005027200b4168800b3
:100d88001e02fb007002620044a2de0004427800ea
:100d9800614262000482fb0061026200b6168000b4
:100da800e5ff2f008502630005027200b416880073
:100db8007d020700cac2a8007b020700cac2a900b8
:100dc80079020700d1e2a800dd02a9001e02fb009b
:100dd8006802620043a2de000442780061426200b9
:100de8000482fb00610262004322dd00b616800027
:100df80075ff2f008502630005027200b416880093
:100e08001e02fb006402620042a2de000442780077
:100e1800614262000482fb00610262004222dd003e
:100e2800b6168000b5ff2f00850263000502720028
:100e3800b41688001e02fb00620262000482d10020
:100e480004427800614262000482fb006102620091
:100e580004024200b6168000d5ff2f008502630009
:100e680005027200b41688001e42780061426200d2
:100e780061426200614262000482fb00610262001a
:100e8800b6168000e5ff2f00850263000502720098
:100e9800b416880044020700cac2a800420207002c
:100ea800cac2a90040020700d262a800d242a80024
:100eb800d222a800d202a800dd02a900d1e2a9002e
:100ec8000080fa00000006000a00fa0030079800c7
:100ed800410798004e029000e60f52001f003c00a8
:100ee80004c4b300244798004e02900004427800de
:100ef800350020000522dd0034479800ae429000fe
:100f08003e42900004c242006842420044479800b2
:100f18004e4090009dfe07000002eb00040f780091
:100f28000002eb00040f7800070037001e0278006b
:100f3800be02900004824200144278000440780007
:100f48005dff07001e0fe8001e027800e70f520041
:100f5800f6ff340023fe0700010037000000000000
:100f68000080fa00000006000400fa00100798004c
:100f78001e029000e60f520007003c001e0290007f
:100f8800044278000442e800044f78001e407800cc
:100f980049ff070001003700000000000080fa0048
:100fa800000006000000fa00d802a900d822a90013
:100fb800d842a900d862a900d882a900d8a2a9005d
:100fc800dc02a900dc22a900dc42a900dc62a9003d
:100fd800dc82a900dca2a9000080fa00000006005b
:100fe8000400fa00000f7800110798001e0278002c
:100ff800cfa2de005600200007002000860f520016
:10100800878f5a004e003e0004600100050037003b
:101018000f0037001a00370025003700300037006e
:101028003b0037001e0290000442780061426200d3
:101038000482fb0061026200e6168000e5ff2f00d3
:101048008502630005027200e41688003c00370040
:101058001e02900004427800614262000482fb0094
:101068006102620004024200e6168000d5ff2f00ec
:101078008502630005027200e4168800300037001c
:101088001e02900004427800614262000482fb0064
:10109800610262004222dd00e6168000b5ff2f00e3
:1010a8008502630005027200e416880024003700f8
:1010b8001e02900004427800614262000482fb0034
:1010c800610262004322dd00e616800075ff2f00f2
:1010d8008502630005027200e416880018003700d4
:1010e8001e02900004427800614262000482fb0004
:1010f800610262004422dd00e6168000f5fe2f0042
:101108008502630005027200e41688000c003700af
:101118001e02900004427800614262000482fb00d3
:10112800610262004522dd00e6168000f5fd2f0011
:101138008502630005027200e416880000000000c2
:101148000080fa00000006000200fa00000f780094
:101158001e027800cfa2de00560020000700200003
:10116800860f5200878f5a005a003e000460010023
:1011780005003700110037001e0037002b0037002c
:101188003800370045003700e41680000442780034
:101198006142620004c2ea00614262000482fb000c
:1011a80061026200e6168000e5ff2f0085026300f9
:1011b80005027200e416880046003700e416800035
:1011c8000402d1006142620004c2ea006142620086
:1011d8000482fb006102620004024200e6168000fd
:1011e800d5ff2f008502630005027200e41688000f
:1011f80038003700e41680004222de0061426200b7
:1012080004c2ea00614262000482fb0061026200db
:101218004222dd00e6168000b5ff2f00850263003c
:1012280005027200e41688002a003700e4168000e0
:101238004322de006142620004c2ea0061426200a9
:101248000482fb00610262004322dd00e616800092
:1012580075ff2f008502630005027200e4168800fe
:101268001c003700e41680004422de006142620060
:1012780004c2ea00614262000482fb00610262006b
:101288004422dd00e6168000f5fe2f00850263008b
:1012980005027200e41688000e003700e41680008c
:1012a8004522de006142620004c2ea006142620037
:1012b8000482fb00610262004522dd00e616800020
:1012c800f5fd2f008502630005027200e416880010
:1012d800000000000080fa00000006000000fa008c
:1012e800c602a900c622a900c642a900d202a800c7
:1012f800d222a800d242a800d262a8000080fa0038
:10130800000006000200fa000082eb00040f7800db
:10131800030037000900070000027800040f780076
:101328001e027800e00f5200faff35001e02780016
:10133800040078000080fa00000006000000fa00af
:10134800ca02a900ca22a800ca42a80012010700be
:10135800a416800061026200e00f520002003a0009
:101368000002eb004b003700a41680006202620006
:10137800e00f520002003a00340020004500370018
:10138800a416800064026200e00f520002003a00d6
:10139800640020003f003700a41680006802620045
:1013a800e00f520002003a00940020003900370094
:1013b800ca02a800ca22a900ca42a800f60007006b
:1013c800a416800061026200e00f520002003a0099
:1013d800140020002f003700a4168000620262006b
:1013e800e00f520002003a004400200029003700b4
:1013f800a416800064026200e00f520002003a0066
:101408007400200023003700a416800068026200e0
:10141800e00f520002003a00a40020001d0037002f
:10142800ca02a800ca22a800ca42a900da00070016
:10143800a416800061026200e00f520002003a0028
:101448002400200013003700a41680006202620006
:10145800e00f520002003a00540020000d0037004f
:10146800a416800064026200e00f520002003a00f5
:101478008400200007003700a4168000680262007c
:10148800e00f520002003a00b400200001003700cb
:101498000082eb00040078000080fa0000000600db
:1014a8000000fa00c6e2a9000080fa000000060069
:1014b8000000fa00cae2a9000080fa000000060055
:1014c8000000fa00cae2a8000080fa000000060046
:1014d8000000fa005516800004082000048262000b
:1014e80004f0a7000402ea000402e9004f22de002b
:1014f80004427800044078000080fa0000000600ea
:101508001800fa00200f9800310f98002e0a90005a
:10151800050020000401be00006a28001100200018
:10152800c6fb07000002be00440798005507980054
:101538004e029000de0290008502d1000482d300a2
:101548006407980075079800ae0a90003e0a90005c
:1015580004aab900040278000402d10005002000a2
:10156800040f9800150f98006022b800048fbe0081
:101578002a003700cae2a9006022b80024079800b0
:101588003507980007003700830007002e029000f7
:10159800be02900061024200e0824a0024079800df
:1015a800350798002e039000be0390006e0290004d
:1015b800fe029000840f5300858f5b00f2ff390014
:1015c800cae2a8006022b8002407980035079800ee
:1015d80007003700700007002e029000be0290003e
:1015e80061024200e0824a0024079800350798000b
:1015f8002e039000be0390006e029000fe02900041
:10160800840f5300858f5b00f2ff3900140020001f
:10161800050020001e0f42005e974a000e0a900047
:101628009e0a90001e03be00840f5300858f5b0046
:10163800d0ff39000080fa00000006000800fa0018
:101648002007980031079800020020000328240092
:101658002e009000be009000f5fb07000002be00bf
:101668000401be000000200011be240031fb070069
:101678000002be000400be007ffb07000002be009f
:10168800040f78001e0278000402d10014079800a5
:101698008c60a8008460a900a404800004c0a10094
:1016a80004d0a10004e0a000a40488000002eb001c
:1016b80024088800240880000440a1000450a000e9
:1016c800240888000421a9000002eb00040888000f
:1016d8001e029000140888000080fa00000006002e
:1016e8000000fa0005e1a8000080fa0000000600ea
:1016f8000000fa0005e1a9000002eb0004088800d8
:101708000080fa00000006000000fa00f4f72f003d
:101718004415880044002000041588007400200047
:10172800341588000002eb005415880024002000be
:10173800241588000002eb0014158800a1e2a80017
:101748000080fa00000006000200fa000002eb0028
:10175800040f7800020037001b0007001e0fe80086
:101768001e027800f30f5200fbff3400a022a900ec
:10177800000000000415800061026200e00f5200c2
:10178800fcff320004148000040078000080fa0096
:101798000000060000000600310620008100e90074
:1017a800feff3a0000000600610c20008100e900fd
:1017b800feff3a0000000600215c20008100e900dd
:1017c800feff3a000000060001002c008100e9003d
:1017d800feff3a000000060001002c008100e9002d
:1017e800feff3a0001002c008100e900feff3a00ec
:1017f80001002c008100e900feff3a00000006000d
:101808000400fa00000f7800110798000002eb00ae
:0c181800040078000080fa0000000600c8
:020000040000fa
:0418240000000000c0
:00000001FF
