:020000040000fa
:080000000001040000000000f3
:020000040000fa
:100008009a0100009a0100009a0100009a0100007c
:100018009a0100009a0100009a0100009a0100006c
:100028009a0100009a0100009a010000c816000019
:100038009a0100009a0100009a0100009a0100004c
:100048009a0100009a0100009a0100009a0100003c
:100058009a0100009a0100009a0100009a0100002c
:100068009a0100009a0100009a0100009a0100001c
:100078009a0100009a0100009a0100009a0100000c
:100088009a0100009a0100009a010000a4150000de
:100098009a0100009a0100009a0100009a010000ec
:1000a8009a0100009a0100009a0100009a010000dc
:1000b8009a0100009a0100009a0100009a010000cc
:1000c8009a0100009a0100009a0100009a010000bc
:1000d8009a0100009a0100009a0100009a010000ac
:1000e8009a0100009a0100009a0100009a0100009c
:0800f8009a0100009a010000ca
:020000040000fa
:100108009a0100009a0100009a0100009a0100007b
:100118009a0100009a0100009a0100009a0100006b
:100128009a0100009a0100009a010000c816000018
:100138009a0100009a0100009a0100009a0100004b
:100148009a0100009a0100009a0100009a0100003b
:100158009a0100009a0100009a0100009a0100002b
:100168009a0100009a0100009a0100009a0100001b
:100178009a0100009a0100009a0100009a0100000b
:100188009a0100009a0100009a010000a4150000dd
:100198009a0100009a0100009a0100009a010000eb
:1001a8009a0100009a0100009a0100009a010000db
:1001b8009a0100009a0100009a0100009a010000cb
:1001c8009a0100009a0100009a0100009a010000bb
:1001d8009a0100009a0100009a0100009a010000ab
:1001e8009a0100009a0100009a0100009a0100009b
:0801f8009a0100009a010000c9
:020000040000fa
:10020000cf9420000eff20000e01880000000000a7
:10021000000020000000e000020032000001200089
:10022000200288000c00070040042200010020008a
:1002300011000700000020000000e0000200320072
:100240000000020000000000100f0200000000008b
:100250000040da000000fe004440a900a019200080
:100260000000e0000300320000002000a001880030
:100270004440a8000000060091018800800078003a
:100280000000eb0015003700e280400032a0b4000f
:100290009101ba00e280400032a0b4009102ba009d
:1002a000e280400032a0b4000002eb00472bde00e9
:1002b000f507b200602ce10004003a000059eb00a1
:1002c0008301e900fdff3e00040037006128e100e2
:1002d000010032000082eb00040007001101ba00a7
:1002e0000200e000e8ff3a00000006003159ba00c1
:1002f0008301e9000c0032002159ba008301e900b2
:10030000080032000400e00003003a00e2804000f0
:1003100032a0b400f5ff370011d9ba008301e9001b
:10032000faff3a008100e800e180400032a0b4000a
:10033000000006000040da000000fe000a00fa009b
:10034000e20f500022003e00544a8000e10f5200ac
:1003500006003200e7212000a62120008421200091
:1003600065212000e08f530004003a00472120005f
:1003700006212000e4202000c520200000002800e5
:100380001500600003003a00800b78000700280089
:10039000958a7300054020009482620001003a00b3
:1003a00014a0a000820278000600370094037800b1
:1003b0000710b200fdff3200b103fb00070b78000d
:1003c0008502e900e08f5200f8ff3a00080037008c
:1003d00034002000b4bf9f00c0bf9f00d1bf9f006a
:1003e000e2bf9f006a805700590407006fb9970069
:1003f000020078000080fa000000060000102000d3
:100400000e02b6000000e9004f00de00000006000a
:10041000a21088006010880071108800000006009b
:100420006410800066026200e60f520002003a008b
:10043000901080000000060090108000f00fb200c5
:10044000000006006410800066026200e60f5200a1
:1004500001003200f00fb20080108800000006009a
:10046000839f68000100e00002003d006000100072
:10047000e08018000300e00002003d006001110070
:10048000e0811900050007004f00e00002003b007a
:1004900060001000e0801800000006006022b80034
:1004a000060220000000d0008180d2000482d20029
:1004b0008582d2000000a0000202520083825a000e
:1004c000030031000202420083824a000000a100c2
:1004d0000603e900f3ff3a0000000600000278007e
:1004e00002003700315a78000201e900e00f5100a4
:1004f000fcff3a00000006000c00fa00889fbe00d6
:1005000000047800f4ff2700d4bf9f008004eb00b4
:1005100099bf9f0088bf9f00a8bf9f00240c2000a8
:10052000b4bf9f0078815700cfb09700708057000c
:10053000070007000fba9700094a78000fba970022
:10054000080052004f04be000080fa0000000600c0
:10055000ef03b000889fbe008a9fbe008c9fbe0044
:100560008e1f780080067800d1af9f00a2b79f0051
:100570000007eb0064033700dfa897008100e80064
:10058000d1af9f0054c2b300844f500006003a0020
:10059000010278000006eb0001c3b30000c2b30003
:1005a000b7c2b3000e0037003d0290000404b20051
:1005b000040032001d027800004a7800840ee80032
:1005c000050037000000fb008d0078005a0307008b
:1005d000e10f40004c0332000e07e8004a033700e9
:1005e0008402780034437800d2c2b300824f5300b3
:1005f0000900320005003c00804f53000800320023
:10060000874f53000c003a0007003700814f53001a
:1006100009003a00060037000c30a000f0ff370058
:100620000c00a000eeff37000c10a000ecff37001c
:100630000c20a000eaff37006202660001003200d1
:100640000c00a10068026600010032000c20a1002d
:100650000602fb000403b100e90f52000c003e004b
:10066000050378000002eb006a22b900b603fb0024
:100670000703b10004824300860278009603fb0062
:100680000703b100e98f5300f7ff36000800370079
:100690000002eb00a7c2b300874f530004003a00ea
:1006a000afb1970043027800a3b79f008502e8002e
:1006b0000003eb0096b79f00e6c2b300954f13000e
:1006c0000c003a000ce0a00064435300d54f130027
:1006d00003003200050378000000eb00090037003a
:1006e000afb3970047047800a7b79f0098b79f0063
:1006f0008502e80005037800090037006a00b900a8
:100700000080430086027800b603fb000703b100b7
:10071000e98f5300f9ff360090b79f00f5ff3700cf
:10072000b6427800d6af9f00cac6b3008acf520047
:10073000250032000f003c0036c6b30086cf5200c1
:100740009d00320004003c00e0cf5200f302320072
:100750006b4353000f00370046c6b30086cf5200ec
:10076000170032006543430086cf5200b0003a00c4
:100770001300370036c7b30086cf52002000320086
:1007800007003c006443530086cf5200150032003e
:100790000643e80086cf5200a5003a001400370057
:1007a00056c7b30086cf5200a8003200634343000f
:1007b00086cf52009e003a00e5779f000e0037007a
:1007c000e5779f00a3003700f003660005012000d5
:1007d00001003200050028008c82720005067800b6
:1007e000cfff3700e5779f000c60a000990037002d
:1007f000e5779f000c50a0000c70a000950037001a
:10080000e5779f00afb59700cb027800abb79f00ac
:10081000b5b79f00e08f520002003a0061872000c8
:10082000b1b79f003fb397008002eb000100370093
:100830008502e800e6c37a00e0cf5300fcff3a00ef
:10084000c5b79f001fb19700e00f510005003200af
:10085000cfb19700830f510002003100820278006f
:10086000c5b79f00cfb297000004eb00850f520080
:1008700001003600050452006806660009c2b30094
:100880000f003200290037003d0290000404b2003e
:10089000040032001d027800094a7800840ee80046
:1008a000050037008d00780000022000a20207003a
:1008b000e10f4000010032000e07e8000804e900e3
:1008c000e00f5400f0ff3a000084eb0017003700ff
:1008d000bd0290000504b200090032009d037800bb
:1008e0008802780035437800864b7800870ee80050
:1008f00005047800e04f53000a003a00100037006a
:10090000880278003500fb00050478008d0078002f
:1009100084bf9f00880207000fba9700e10f4000d4
:10092000070032000e07e8000500370008027800d3
:100930003fb49700cfb497005fb59700efb597002d
:10094000890278008504e900e08f5200e0ff3a0058
:10095000b8b79f00c9b79f00dab79f00ebb79f00f9
:100960000404780009c2b300e00f56000f003a00fb
:10097000650237003d0290000404b200040032001a
:100980001d027800094a7800840ee800050037004f
:100990008d0078000002200067020700e10f400090
:1009a000010032000e07e8000804e900e00f5400df
:1009b000f0ff3a0054023700afb0970041047800ce
:1009c000a1b79f00cfc4de00090578008a05780032
:1009d0000800be000a01be004800de00c80add00b3
:1009e00000807200e0779f0070036600090032000b
:1009f000e04f500007003200e14f40000500320098
:100a0000f0779f00887f9f0026002000c6b79f00d8
:100a100003003700f8779f0017002000c7b79f003a
:100a200078fb2f0008844700b8b79f0085ff370088
:100a3000e5779f0069fb2f0089844700b9b79f00c5
:100a40001a002000cab79f007eff3700e5779f009d
:100a50000c0cb3008c027800050cb2003b003a008d
:100a6000e00f560005003d00afb297004501be0003
:100a70004500be00a5b79f000f003700f0026600da
:100a8000120032002fb497004803be00a8b79f00a1
:100a9000f69f9f0087a79f0098029000cfaade00d4
:100aa00095a79f00a5a79f007f9897008fa097000c
:100ab0001fa19700afa19700b0b79f00c1b79f00db
:100ac000d2b79f00e3b79f000b003700afb097008d
:100ad000c1027800a1b79f0005047800cfc4de00f2
:100ae000090578008a057800b8b79f00c9b79f004c
:100af000dab79f00ebb79f003fb09700cfb09700e9
:100b00005fb19700efb19700e00f5000e08f580001
:100b1000e00f5900e08f590032003d003c00b30067
:100b20006000b8006011b8003fb49700cfb49700e0
:100b30005fb59700efb5970008045000898458000e
:100b40000a0559008b85590022003700e00f560036
:100b500005003d00afb297004501be004500be0054
:100b6000a5b79f000f003700f002660012003200a8
:100b70002fb497004803be00a8b79f0096af9f0010
:100b8000a7af9f008004eb00b9af9f000005eb000a
:100b9000caaf9f001fa89700afa897003fa9970072
:100ba000cfa99700b0b79f00c1b79f00d2b79f00f1
:100bb000e3b79f000b003700afb09700c102780089
:100bc000a1b79f0005047800090020000a0020005a
:100bd0000b002000b8b79f00c9b79f00dab79f008d
:100be000ebb79f009fb49700e08f54000d003a00d0
:100bf0001a0020009ab79f003fb09700cfb097002f
:100c00005fb19700efb19700e00f5000e08f580000
:100c1000e00f5900e08f5900020032008000eb0025
:100c200091b79f000c017800020cb20082b79f00c0
:100c300005042000850f51003400320003003c0001
:100c4000e00f51000800320048003700050820007e
:100c50008fb19700858f510014003200050c2000e1
:100c6000858f510041003a006688200015c0b3000e
:100c70003600be003601be003fb49700cfb49700e7
:100c80005fb59700efb597000040e10001c8e100b3
:100c900002d0e10003d8e100330039008542e800ca
:100ca000f4cf5200f2ff3a002f00370015c0b30016
:100cb00000012000010020006011b8003fb497003f
:100cc000cfb497005fb59700efb597000040e10003
:100cd00001c8e10002d0e10003d8e10022003900a0
:100ce000490020000000d0008180d2000281d200a3
:100cf0008381d2008904e900faff3a008542e800c6
:100d0000f0cf5200edff3a001700370015c0b300d6
:100d100080002000010020006011b8003fb497005f
:100d2000cfb497005fb59700efb597000040e100a2
:100d300001c8e10002d0e10003d8e1000a00390057
:100d4000390020000000d0008180d2000281d20052
:100d50008381d2008904e900faff3a008542e80065
:100d6000f5cf5200edff3a00e5779f006f759700d1
:100d70008a02fb009fb597008b8f520002003d0056
:100d8000eb779f00040037001fb09700850f5000dd
:100d900001003d0095b79f00e00f520003003200b4
:100da000e3026600010032000402e90005002400ad
:100db00085026600060032009fb09700810f520046
:100dc0000200340001025200010037000002eb0073
:100dd0006f7197008202fb008001eb00f3af9f0070
:100de000850f52000200340085025200f5af9f00cb
:100df000640266003b003200e202660061026600a7
:100e0000e08f520011003200bd0290000504b200d4
:100e1000080032009d027800b6c2b300e00f520015
:100e20000100320006c3e800864a7800850ee8001b
:100e300015003700b0022000e00f52000100320020
:100e40000080e8008d0078000c003700e00f5200b1
:100e50000e0032003d0290000404b2000500320092
:100e60001d02780005c2b300054a7800840ee80030
:100e7000050037008d007800000220002e010700d9
:100e8000e10f4000010032000e07e8007faa970042
:100e9000e00f52004f00320008c3b3008404780012
:100ea0003d0290000404b200040032001d027800ec
:100eb000084a7800840ee800050037008d007800ad
:100ec000000320001c010700e10f40000100320078
:100ed0000e07e8008904e900f1ff3a00f9af9f002e
:100ee0003c003700ffaa9700e08f52001400320048
:100ef0006802660012003a0008c2b3008504780058
:100f00003d0290000404b200040032001d0278008b
:100f1000084a7800840ee800050037008d0078004c
:100f20000002200004010700e10f40000100320030
:100f30000e07e8008904e900f1ff3a00f9af9f00cd
:100f4000e202660061026600e08f5200110032008a
:100f5000bd0290000504b200080032009d02780036
:100f6000b6c2b300e00f52000100320006c3e80031
:100f7000864a7800850ee80015003700b002200090
:100f8000e00f5200010032000080e8008d00780080
:100f90000c003700e00f52000e0032003d029000be
:100fa0000404b200050032001d02780005c2b3003f
:100fb000054a7800840ee800050037008d007800af
:100fc00000022000dc000700e10f400001003200b9
:100fd0000e07e8001fb397000602e900c223dd00f8
:100fe000c7a79f006323b90006047800b8a79f0035
:100ff0004322dd00e587200085024200e5af9f0027
:10100000f0046600e99f9f000c0578000a02b20018
:10101000da9f9f00a30037009fb597008b05e9007a
:101020009bb79f000fb0970001042000810f500074
:101030007300320003003c00e00f50000800320053
:101040007e003700040820000fb19700840f510084
:1010500056003200040c2000840f510077003a0043
:10106000e00f56001f003d00efa997003304be00bb
:101070002305be000802be000a03be003fb0970071
:10108000cfb097005fb19700efb19700e301070081
:10109000e0779f000000fb00cf80de0001017800b8
:1010a000820178000802be000a03be004402070065
:1010b0003fb29700cfb297005fb39700efb39700ae
:1010c0000002520081825a0002035b0083835b00ae
:1010d000b4b79f00c5b79f00d6b79f00e7b79f0082
:1010e0002e003700ef9a9700e08f52002200320066
:1010f0003fb29700cfb297006fab97003604be00a7
:101100002605be000801be000400be0084bf9f008b
:10111000f5b79f00e1fc0700e0779f000000fb00af
:10112000cf80de000801be000b0107000fba970058
:10113000ffb297000004520081845a00d8a79f0094
:10114000e9a79f008004eb00f9a79f000005eb00d2
:101150008aaf9f005fa09700efa097007fa1970044
:101160008fa99700b0b79f00c1b79f00d2b79f006b
:10117000e3b79f0009003700efa89700110278003d
:101180003fb19700110009000481d800a40020009d
:10119000110009000480d800e1779f00ef719700eb
:1011a0000343b000e3779f002400370054862000fb
:1011b000df9a9700e08f5200010032004485200042
:1011c0003fb09700cfb097005fb19700efb19700a5
:1011d0004fa397000603e900050033008301d10007
:1011e0000281d3008180d3000080d300f9ff370053
:1011f0006f00600064407800e0779f000f003700c8
:101200003fb29700cfb297005fb39700efb397005c
:101210003fa497000804e900050033008703d100cc
:101220000683d3008582d3000482d300f9ff370000
:10123000674262000443b000e4779f003d029000e3
:101240000404b200070032009d0278006f7297001c
:10125000844a7800850ee800e04f520007003a000b
:1012600007003700ef7497000900fb008d0078003d
:1012700031000700e10f4000010032000e07e800d6
:101280004fa5970064055500caa79f00bfa597000a
:10129000e3855500bba79f006fa89700680050002a
:1012a000e0af9f009fb09700e08f50005aff3a00d8
:1012b00068066600140032007fa99700e00f510015
:1012c0001100340008c2b300820478003d0290008f
:1012d0000404b200040032001d027800084a7800bd
:1012e000840ee800050037008d0078000002200021
:1012f00011000700e10f4000010032000e07e80076
:101300008904e900f1ff3a00dfa997001340780053
:10131000e0779f00e04f500097fc3a000e00780005
:101320004f0778004f06be004f05be004f04be00b9
:10133000ef03b10000000600889fbe0001047800a2
:1013400038029000e20262008084eb003b00320031
:10135000040378000620b2009802900002003a00d0
:10136000e08f520035003a000490a0003404980049
:1013700080047800f90fb200e08f520002003a00ba
:10138000a8029000050c7800ea8f540005003a008e
:101390000408b20003003a0088007800d000200062
:1013a000e5ff070018029000d8029000850f520058
:1013b0000b0032000402e8001404980018027800c0
:1013c000094a7800040ce80015c0b30044942000da
:1013d000054a7800ea8f540018003a0005003700eb
:1013e0008800780009407800170007008004780022
:1013f00012003700380290000410b2000f003200d3
:1014000018019000a800900048009000cbfb070056
:1014100018029000840f500004003200380290003f
:101420000403b300340498008084eb000002eb0056
:101430001404980028029000040c78000900780039
:101440004f04be00000006000200fa00889fbe00a4
:10145000a0ff9f0001047800380290008402780009
:101460000504b200020032000000fb003500370026
:10147000e202620005003a000403b300340498005d
:10148000150498000080eb002e003700d80490006f
:10149000e08f540006003a0012002000e68057005a
:1014a00048009000a5fb07001904980023003700ae
:1014b000a8029000e08f520008003a0075942000c6
:1014c00025049800050c780025002000550498009c
:1014d000150498000430a00034049800180190000e
:1014e000a80090004800900094fb0700280290009c
:1014f0008082eb0015049800affa9700054a780047
:10150000040ce8002ffa9700ea4f52000b003a0053
:10151000380290000410b200080032001801900058
:10152000a80090004800900084fb07000002eb0038
:1015300014049800a8029000050c78002ffa970078
:101540000400fb004f04be000080fa00000006000b
:1015500000c0da0000000600020ab900001bb90052
:101560000200b80081004200810043000000060034
:10157000889fbe008a9fbe003004be002005be00ca
:101580000404440085844c0006054d0087854d0009
:101590000898be000a90be000440e10005c8e100c2
:1015a00006d0e10007d8e1000200310068004000e9
:1015b0001008e8004f05be004f04be000000060002
:1015c0001000fa00889fbe008a9fbe000605be007c
:1015d0000404be003002be002003be00c4b79f005a
:1015e000d5b79f00e6b79f00f7b79f0008025200eb
:1015f00089825a000a035b008b835b0084bf9f00d3
:1016000095bf9f00a6bf9f00b7bf9f000498be0074
:101610000698be00110020004fb29700dfb297007d
:101620006fb39700ffb397000820e10009a8e1001d
:101630000ab0e1000bb8e100010039008000eb00c6
:10164000108810004f05be004f04be000080fa0055
:10165000000006001400fa00889fbe008a9fbe00aa
:101660008c9fbe003f0007000605be000404be00bc
:101670000006eb00ccb79f00bcb79f00acb79f0043
:101680009cb79f008cb79f000d0420004fb39700bc
:10169000bfb29700860343002fb29700e00f5300bc
:1016a00004003d003d0007000f004000b0ff0700b0
:1016b00003003700390007000f004000c0ff07009b
:1016c000cfb2970095bf9f00e08f52000900350010
:1016d0002b00070014002000050020006033b80034
:1016e0000000720081807200020173008381730028
:1016f0001c0007000c06e8008d0f5600e3ff3a00bf
:101700001fba9700e00f520005003d000802be001e
:101710000a03be0000fe2f000f00400094ff0700e8
:101720004faa9700e00f520008003a000fb497004c
:101730009fb497002fb59700bfb59700d8b79f000b
:10174000e9b79f00fab79f008bbf9f000c0007000e
:101750004f06be004f05be004f04be000080fa00d9
:1017600000000600010007000000060090b79f007f
:10177000a1b79f00b2b79f00c3b79f00000006004b
:1017800001000700000006001fb09700afb09700ef
:101790003fb19700cfb19700000006004f2bde004d
:1017a00086837300a7b79f004f23de008582420027
:1017b0008682720095b79f00ffaa97004f2bde002c
:1017c000040242000602720084b79f006faa9700cd
:1017d0004f23de008582420086827200f5af9f00b3
:1017e000e9ff07004f18de00040242000002720009
:1017f000e4af9f00e4ff0700000040008180480044
:101800000201490083814900d8ff07000802be0099
:101810000a03be0000fe2f0000000600881f7800ab
:1018200018002000881f78008aff07008f87e900d2
:101830004f04780000000600801feb0085ff0700c2
:101840008f87e90000000600889fbe008a9fbe00c7
:10185000e00f5000e08f5800e00f5900e08f590072
:101860000c003d006044b8006055b8000000540012
:1018700081805c0002015d0083815d001800200012
:101880001500070008003d00180007000004eb00e9
:10189000050037000004eb000f00070002003d00c8
:1018a0001200070018002000dcff0700e00f5400c2
:1018b000060032006022b8006033b8000000520019
:1018c00081805a0002015b0083815b004f05be00ee
:1018d0004f04be0000000600e00f5200e08f5a00e7
:1018e000e00f5b00e08f5b00000006006044b80082
:1018f0006055b8000402540085825c0006035d0058
:1019000087835d0000000600889fbe008a9fbe009e
:101910008c1f7800e00f5000e08f5800e00f590056
:10192000e08f59000d003d006044b8006055b800dc
:101930000000540081805c0002015d0083815d0035
:101940001c0020000820e10009a8e1000ab0e10025
:101950000bb8e1000d003d00080037000006eb0069
:10196000e00f5200e08f5a00e00f5b00e08f5b0059
:1019700006003d006044b8006055b8000402540001
:1019800085825c0006035d0087835d00aaff070077
:10199000e00f5600060032006022b8006033b80045
:1019a0000000520081805a0002015b0083815b00cd
:1019b0004f0678004f05be004f04be000000060031
:1019c000889fbe008a9fbe008c1f78000006eb0037
:1019d000e00f5000e08f5800e00f5900e08f5900f1
:1019e00007003d006044b8006055b8000000540096
:1019f00081805c0002015d0083815d001c0020008d
:101a0000e00f5200e08f5a00e00f5b00e08f5b00b8
:101a100007003d006044b8006055b800040254005f
:101a200085825c0006035d0087835d000c00a200d8
:101a30000c000700e00f5600060032006022b800dc
:101a40006033b8000000520081805a0002015b0040
:101a500083815b004f0678004f05be004f04be0037
:101a600000000600889fbe008a9fbe008c9fbe00bb
:101a70000404b8000506b8008904460060854e00dd
:101a80000606b8000a054600e0854e000706b800c5
:101a90008b054600040eb800890446000a854e00f6
:101aa000e0854d00050eb8000a0546008b854e0006
:101ab000060eb8008b0546000416b8000a0546005d
:101ac0008b854e000516b8008b054600041eb80035
:101ad0008b0546000800be000a01be004f06be008e
:0c1ae0004f05be004f04be0000000600d1
:020000040000fa
:101aec00302e0000204300006f6e00007472000066
:101afc006f6c0000003100002e200000506c0000c4
:101b0c00616e00007461000000200000436f000053
:101b1c006e740000726f00006c000000205000001a
:101b2c006c6100006e74000061000000204f00002a
:101b3c0070630000696f00006e200000696e000089
:101b4c00636f000072720000656300007461000036
:101b5c0000200000506f0000746500006e630000f0
:101b6c0069610000206500006c6500006374000072
:101b7c00722e000000200000626100006a6100000b
:101b8c002e000000202500007500000020530000ee
:101b9c0075620000696500006e6400006f2e000025
:101bac0000200000426100006a6100006e640000c9
:101bbc006f2e000000200000506c0000616e0000d1
:101bcc007461000020250000752e0000002000002c
:101bdc0041730000636500006e7300006f720000bb
:101bec00006200006c6f0000717500006561000000
:101bfc00646f00002e000000202000002020000058
:101c0c004d6f0000646f0000205300002e4f000049
:101c1c002e53000000200000202000002061000056
:101c2c006374000069760000616400006f000000be
:101c3c00537400006f7000007065000064000000b9
:101c4c0041730000636500006e640000696e000063
:101c5c00670000004465000073630000656e0000bf
:101c6c00646900006e670000004d00004f440000e6
:101c7c004f200000532e00004f2e00005320000078
:101c8c00414300005449000056410000444f0000fd
:101c9c000d0a00002d2d00002d2d00002d2d000013
:101cac002d2d00002d2d00002d2d00002d2d0000c0
:101cbc002d2d00002d2d00002d0d00000a410000df
:101ccc006c74000075720000613a00002025000061
:101cdc00750d00000a5000006f740000656e000066
:101cec006369000061200000656c00006563000002
:101cfc007472000069630000613a00002025000046
:101d0c00750d00000a45000073740000616400004a
:101d1c006f3a000020250000730d00000a500000ef
:101d2c00756c000073650000207500006e200000cb
:101d3c00766100006c6f000072200000646500008a
:101d4c006c20000030200000616c00002035000089
:101d5c0020700000617200006120000073650000bb
:101d6c006c65000063630000696f00006e61000029
:101d7c0072200000706c0000616e00007461000045
:101d8c002e0d00000a500000756c000073650000f9
:101d9c0020450000534300002070000061720000d9
:101dac006120000064650000736100006374000032
:101dbc006976000061720000206d00006f64000005
:101dcc006f200000532e00004f2e0000532e0000f9
:101ddc000d0a000000440000657300006163000000
:101dec0074690000766100006e6400006f200000d2
:101dfc006d6f0000646f0000205300002e4f000038
:101e0c002e5300002e2e00002e0d00000a0d000097
:041e1c000a000000b8
:020000040000fa
:101e20000200fa00ee0607000d0407002506070071
:101e3000fb0807002d0907005a07070060d7280094
:101e4000420407003b04070010d828003f040700a5
:101e50000082eb00040f780014003700ea06070048
:101e600000027800040f7800200407001e027800aa
:101e7000e00f520003003200e10f52000500320073
:101e800008003700b0d82800300407008f00070092
:101e90000600370040d928002c0407000d00070079
:101ea00002003700c0d92800280407001e0278006d
:101eb000e00f5200030032001e027800e10f5200d2
:101ec000e6ff3a000002eb00040078000080fa0010
:101ed000000006000a00fa00c4c3b3000400780042
:101ee00014e8b700c4c3b3000400780015e8b700d5
:101ef0000042eb000400780016e8b7000042eb0057
:101f00000400780017e8b7000042eb00044f980087
:101f1000a4fd2e001407980044c0b3004447980065
:101f20004e41900031c0b3001e009000c70807006a
:101f3000e4080700540037003585200095427800fa
:101f4000b4cdb30084cf520004003e0014c0b300ef
:101f50000002fd0016e8b7000002fd0064812000c9
:101f600014427800e04f52000900320011002000b6
:101f70000000eb001a07070044812000144278009b
:101f80000002fd0015e8b7000002fd000300370065
:101f90008000eb000000eb001107070045812000e6
:101fa00095427800548120001442780084cf52007a
:101fb0000200310092000700070037004581200031
:101fc00095427800548120001442780084cf52005a
:101fd000010036009c0007000e4a9000544798000c
:101fe00045812000954278005481200014427800f9
:101ff00084cf52000300310014c0b300044f980096
:102000000b00370045812000954278005481200064
:102010001442780084cf52000300360024c0b3007d
:10202000044f9800020037000042eb00044f980074
:102030005e4290008402fb000e4a90000482fb0086
:10204000848f520010003200448120001442780036
:102050006447980045812000954278005481200013
:102060001442780004c26a000482fb000402e90002
:102070004f22de0004427800744798006602470051
:10208000040078009c0007004581200095427800fc
:10209000548120001442780084cf5200a6ff3a00f9
:1020a0000002eb00040f780002003700c3080700ad
:1020b0001e0fe800340620009e027800848f520034
:1020c000faff340000000000efff37000400fa00c0
:1020d0001d070700ef0007000002eb00040f780067
:1020e00002003700b50807001e0fe8001e02780046
:1020f000e90f5200fbff340043060700000278009e
:10210000140798002585200095427800b4cdb300cf
:1021100084cf52000e003e00b90107007303070090
:10212000f0da2800890307008203070010dc28008a
:1021300086030700000000002585200095427800f6
:10214000b4cdb30084cf5200fbff36006703070015
:102150001e02900005002000b600200007002000ad
:10216000860f5200878f5a0023003e000460010052
:102170000b003700200037000c0037000e0037003e
:102180001d0037000f003700110037001a0037001c
:102190001200370014003700170037001400370012
:1021a0000000eb008700070014003700100020003b
:1021b0008400070011003700200020008100070084
:1021c0000e003700300020007e0007000b003700b3
:1021d000400020007b00070008003700500020006e
:1021e0007800070005003700b5010700030037003d
:1021f000830107000100370000000000b6ff370030
:102200000200fa0044812000144278000442e800f1
:102210000002fd0014e8b7000002fd000002eb0020
:10222000040f780002003700640807001e0fe80062
:102230001e027800e90f5200fbff34001400070073
:102240000080fa00000006000200fa00448120002d
:10225000144278000442e9000002fd0014e8b700cf
:102260000002fd000002eb00040f780002003700be
:10227000520807001e0fe8001e027800e90f520006
:10228000fbff3400020007000080fa000000060097
:102290000000fa0044812000144278000482fb0010
:1022a000841f780084dc2800841f7800e0832000ed
:1022b00091f80700e48757000c030700e083200033
:1022c000220307000080fa00000006000200fa0066
:1022d000000f78001e027800144278000400780095
:1022e00015e8b7000042eb000400780016e8b700dc
:1022f0000080fa00000006000400fa0010079800b1
:102300001e02900014427800044f78001e029000d4
:1023100014429000144798001e029000244290003e
:1023200024479800320020008e00780060002000d2
:10233000290507000080fa00000006000200fa00ec
:10234000004f78001e4078008082fb00a40020002f
:10235000110009008482d80001027800044278004c
:10236000e04f520009003a001e4278008482fb00d0
:10237000a4002000110009008482d8000002780027
:10238000044278000482fb00010037000082eb0069
:10239000040078000080fa00000006000200fa0045
:1023a000000f78001e027800044278006a22b9000b
:1023b0000402780004427800044078000080fa00ab
:1023c000000006000400fa00100798002481200095
:1023d0001442780004407800d8ff0700000278001b
:1023e0009e029000850f5200180032001e029000dd
:1023f0001100200004007800f90507003481200056
:10240000144278000482fb000402e9004f22de003f
:10241000044f78001e427800e04f5200080032005e
:102420007b00070000427800e04f520004003200b9
:102430001e0090002000070007000700040037007e
:102440001e0090001c000700010037000000000083
:102450000080fa00000006000200fa0035000700c4
:1024600000027800044f78009e4278000582fb004d
:1024700004007800c9ff0700004278001447980064
:102480000e02e800040078007e0007000080fa00d9
:10249000000006000000fa000002eb008440880003
:1024a0000002eb00744088000002eb0064408800ea
:1024b0000080fa00000006000200fa00000f780019
:1024c0001e0078003400070000427800e04f520000
:1024d00013003a0064408000e60f52001200320000
:1024e0008440800084024200048020000482420074
:1024f0001e0a7800844080008402e8006400200006
:10250000110009008482d80001027800844088000c
:10251000644080000402e800644088000300370043
:102520000000000001003700000000000080fa00f9
:10253000000006000200fa0064408000e00f520034
:1025400002003a000002eb001000370074408000e7
:10255000840242000480200004824200140f7800ac
:10256000744080008402e80064002000110009002b
:102570008482d800010278007440880064408000a2
:102580000402e900644088001e027800040078001c
:102590000080fa00000006000600fa0020079800fc
:1025a0000002eb00040f7800120037007440800036
:1025b0009e02420064002000110009008482d800bd
:1025c00001027800140798001e0290008402420065
:1025d0000480200004824200940278002e029000c1
:1025e000848f520002003a0014c0b3000500370087
:1025f0001e0fe800644080009e0f5200ebff3e007b
:102600000042eb00044078000080fa000000060061
:102610000000fa006440800004f0a7000402ea0011
:102620000402e9004f22de000442780004407800f2
:102630000080fa00000006000200fa000002eb0031
:10264000644088000002eb00844088000002eb0038
:10265000744088000002eb00040f7800040037008b
:102660008000eb001e0078005d0507001e0fe800eb
:102670001e027800e50f5200f9ff34000080fa00d6
:10268000000006000400fa00100798001e029000e7
:1026900014427800044f7800120020008e00780069
:1026a000400020004c0407000080fa0000000600f3
:1026b0000400fa00100798001e02900014427800ef
:1026c0000002fd0012e8b7000002fd001e029000ab
:1026d000244290000002fd0013e8b7000002fd0054
:1026e000020207001e029000244290000482fb00b8
:1026f000e10f520003003200e20f520004003200ea
:1027000006003700c0dc2800100207000300370075
:1027100070dd28000d020700000000001e0290007e
:1027200024429000e04f520033003a001e02900015
:10273000144278008482fb00a400200011000900ec
:102740008482d80001027800044278000482fb00f1
:102750000402e9004f22de00044f78001e42780098
:10276000e04f52001d0032001e029000144278001b
:1027700004407800f1fe070000027800841f780012
:1027800014de2800841f7800108320005af7070009
:10279000e487570010832000ec0107001e02900020
:1027a0001442780004407800e4fe0700000278003c
:1027b000e4418800e44180008000eb0004007800e0
:1027c0000705070092ff070000427800e04f520023
:1027d00009003a0020ff070007003700c301070087
:1027e000ce010700d0de2800d8010700d101070084
:1027f00070df2800d50107000080fa000000060005
:102800000200fa000002eb00040f78000400370019
:102810008000eb001e007800f10407001e0fe800a6
:102820001e027800e50f5200f9ff34000100370066
:1028300040ff070076ff070000427800e04f52009b
:10284000fbff32000001eb008000eb0030002000b5
:10285000e10307000080fa00000006000400fa000f
:10286000100798001e02900014427800044f780070
:10287000120020008e00780050002000d6030700d0
:102880000080fa00000006000000fa0014c0b30047
:102890000400780016e8b7000080fa000000060087
:1028a0000200fa00000f78001e027800144278003f
:1028b0000400780052e8b7000080fa00000006002b
:1028c0001201fa00ceff07008801070020e028006f
:1028d0009e0107009701070010e128009b010700f7
:1028e00034812000144278000482fb00e10f520082
:1028f0000b003200e20f520010003200e00f5200d5
:1029000015003a00241020000e0242008200200030
:10291000e1e1280004007800f0f607000e0037001f
:10292000241020000e024200a200200061e22800d4
:1029300004007800e9f607000700370024102000a3
:102940000e024200b200200001e3280004007800db
:10295000e2f6070000000000248520001442780001
:102960000483fb0024812000144278008482fb0051
:102970000e82e800271020008e834300871f780016
:10298000861f7800851f7800b5e32800851f780032
:1029900004007800d8f60700e88757008000eb00b5
:1029a0000000eb00f10407000002eb00040f7800c8
:1029b000060037000e82e8001e0242001442780032
:1029c00004407800360507001e0fe8000e82e8007c
:1029d0001e02420014427800e04f5200f5ff3a0018
:1029e0003b050700004278000402fb006123b900a8
:1029f00054fe2f00f5ff2f000602420087824a0096
:102a0000a601200007002000860f5200878f5a0081
:102a100042003e00046001002c0037003f003700f8
:102a20003e0037003d0037003c0037003b003700d8
:102a30003a003700390037003800370037003700d8
:102a400036003700350037003400370033003700d8
:102a50003200370031003700300037002f003700d8
:102a60002e0037002d0037002c00370005003700fe
:102a700007003700090037000b0037000d00370052
:102a80000f0037000000eb004efe07002300370068
:102a9000100020004bfe070020003700200020001f
:102aa00048fe07001d0037003000200045fe0700eb
:102ab0001a0037004000200042fe070017003700d0
:102ac000500020003ffe0700140037000e82e8008f
:102ad000f201200011ef2800040078007ff60700c3
:102ae0000002eb00040f7800060037000e82e800b9
:102af0001e0242001442780004407800e8040700f7
:102b00001e0fe8000e82e8001e0242001442780008
:102b1000e04f5200f5ff3a00090037000002eb00d9
:102b2000040f780002003700240607001e0fe8009b
:102b30001e027800e90f5200fbff3400a8ff3700a7
:102b40000080fa00000006003600f800809fbe00fa
:102b5000829fbe00849fbe00869fbe003400f800a6
:102b600000002000a00188000000fa00b41c8000d2
:102b700061026200e00f52007c003200041c800001
:102b80004222de00f57f200005026200e44088005a
:102b9000241c8000044278006f4262000482fb0023
:102ba000f4408800f44080006123b9000082eb000b
:102bb0008082eb000602420087824a0076002000f5
:102bc00007002000860f5200878f5a0036003e0013
:102bd000046001002e003700270037002100370075
:102be0001a003700140037000d00370007003700c7
:102bf00000003700641c80004822de000442780098
:102c00000002fd0027e8b7000002fd00641c800000
:102c1000044278000002fd0026e8b7000002fd0033
:102c2000541c80004822de00044278000002fd00af
:102c300025e8b7000002fd00541c80000442780023
:102c40000002fd0024e8b7000002fd00441c8000e3
:102c50004822de00044278000002fd0023e8b700ad
:102c60000002fd00441c8000044278000002fd00c8
:102c700022e8b7000002fd00341c80004822de007c
:102c8000044278000002fd0021e8b7000002fd00c8
:102c9000341c8000044278000002fd0020e8b700e8
:102ca0000002fd0000000000e44080006123b80045
:102cb000d4ff2f00f5ff2f000602420087824a0052
:102cc0003600200007002000860f5200878f5a0030
:102cd00024003e00046001001900370002003700a4
:102ce00019003700070037000482200014427800e2
:102cf000040078002ae8b700a082200073fd0700d6
:102d00001800370004822000144278000400780084
:102d10002ce8b700148220001442780004007800e8
:102d20002de8b700248220001442780004007800c7
:102d30002ee8b700c08220005dfe070009003700c2
:102d4000d1fe0700070037000482200014427800fb
:102d50000400780030e8b70000832000d0fe0700b0
:102d6000000000008ee3a9009603a9008760a90077
:102d70000080fa003400f9004f03be004f02be008d
:102d80004f01be004f00be003600f90000400600b3
:102d90003600f800809fbe00829fbe00849fbe0068
:102da000869fbe003400f80000002000a0018800cb
:102db0000000fa0074812000144278000482fb00b5
:102dc0006102620004427800e04f520016003200b7
:102dd0005605070000027800450020001100090098
:102de0000502d80000027800044278000400780050
:102df00053e8b700348520001442780004007800be
:102e000018e8b7008081200094fe07001100200020
:102e10001000200072030700600507008000eb002f
:102e2000100020006e030700748120001442780017
:102e30000442e8000400780017e8b7008460a900a5
:102e40000080fa003400f9004f03be004f02be00bc
:102e50004f01be004f00be003600f90000400600e2
:102e60000000fa00c6c2a900cde2a900d902a9005b
:102e70005205070010c0b3000e0107004b05070004
:102e800000ccb3000b0107004405070080c0b3006d
:102e9000080107006600070000c2b3000501070033
:102ea0006300070080c2b3008000070060000700d5
:102eb00080c0b3007d0007005d00070010c0b300b4
:102ec0007a0007005a00070060c0b30077000700cf
:102ed0005700070056000700f0c0b300730007005a
:102ee000530007000080fa00000006000000fa000e
:102ef00010c0b3006d0007004d0007000080fa000d
:102f0000000006000000fa0020c0b30067000700c0
:102f1000470007000080fa00000006000000fa00e9
:102f200000c8b30061000700410007000080fa00fc
:102f3000000006000000fa0080cab3005b00070032
:102f40003b0007000080fa00000006000200fa00c3
:102f5000000f780006003700350007001e027800d9
:102f600014427800044078001b0107001e0fe8009f
:102f70001e02780014427800e04f5200f6ff3a003b
:102f80000080fa00000006000000fa0000c1b30053
:102f900046000700260007000080fa000000060037
:102fa0000000fa0040c1b300400007002000070005
:102fb0000080fa00000006000000fa0080c1b300a3
:102fc0003a0007001a0007000080fa00000006001f
:102fd0000000fa00e0c1b30034000700140007004d
:102fe0000080fa00000006000000fa00c0c0b30034
:102ff0002e0007000e0007000080fa000000060007
:103000000000fa00e0c0b300280007000800070035
:103010000080fa00000006000000fa00f0c0b300d3
:1030200022000700020007000080fa0000000600ee
:103030000200fa0014c0b300044f7800d262a80066
:10304000d242a800d222a800d202a800cf040700d2
:10305000d1e2a900dd02a800cc040700cb040700e0
:103060000c003700cac2a800c8040700c704070044
:10307000a41680004322de0061426200044f780003
:10308000c2040700c1040700cac2a900bf040700a8
:10309000be0407001e427800e04f5200f1ff3a00e4
:1030a000dd02a9000080fa00000006000200fa001c
:1030b000004f7800d1e2a900dd02a900d262a90088
:1030c000d242a900d222a900d202a9009e02fb008e
:1030d000040820000482620047a2de000442780057
:1030e000614262000482fb00610262004322dd0053
:1030f000b616800075ff2f0085026300050272007e
:10310000b41688009e02fb000404200004826200c2
:1031100046a2de0004427800614262000482fb00a5
:10312000610262004222dd00b6168000b5ff2f006a
:103130008502630005027200b41688009e02fb003f
:10314000040220000482620045a2de0004427800ee
:10315000614262000482fb006102620004024200dc
:10316000b6168000d5ff2f008502630005027200ad
:10317000b41688001e02fb007002620044a2de004a
:1031800004427800614262000482fb006102620036
:10319000b6168000e5ff2f0085026300050272006d
:1031a000b416880079040700cac2a8007704070093
:1031b000cac2a90075040700d1e2a900dd02a90076
:1031c0001e02fb006802620043a2de000442780097
:1031d000614262000482fb00610262004322dd0062
:1031e000b616800075ff2f0085026300050272008d
:1031f000b41688001e02fb006402620042a2de00d8
:1032000004427800614262000482fb0061026200b5
:103210004222dd00b6168000b5ff2f008502630054
:1032200005027200b41688001e02fb0062026200f2
:103230000482d10004427800614262000482fb00f3
:103240006102620004024200b6168000d5ff2f0022
:103250008502630005027200b41688001e427800e1
:103260006142620061426200614262000482fb00ce
:1032700061026200b6168000e5ff2f008502630040
:1032800005027200b416880040040700cac2a800f4
:103290003e040700cac2a9003c040700d262a8008d
:1032a000d242a800d222a800d202a8000080fa00d0
:1032b000000006000200fa00004f7800d1e2a900e9
:1032c000dd02a900d262a900d242a900d222a9003f
:1032d000d202a9009e02fb000408200004826200c2
:1032e00047a2de0004427800614262000482fb00d3
:1032f000610262004322dd00b616800075ff2f00d8
:103300008502630005027200b41688009e02fb006d
:10331000040420000482620046a2de000442780019
:10332000614262000482fb00610262004222dd0011
:10333000b6168000b5ff2f008502630005027200fb
:10334000b41688009e02fb00040220000482620082
:1033500045a2de0004427800614262000482fb0064
:103360006102620004024200b6168000d5ff2f0001
:103370008502630005027200b41688001e02fb007d
:103380007002620044a2de000442780061426200e2
:103390000482fb0061026200b6168000e5ff2f0088
:1033a0008502630005027200b4168800f703070067
:1033b000cac2a800f5030700cac2a900f3030700a8
:1033c000d262a800d242a800d222a800d202a8004d
:1033d0000080fa00000006000200fa00004f7800aa
:1033e000d1e2a800dd02a900d262a900d242a90060
:1033f000d222a900d202a9009e02fb0004082000ec
:103400000482620047a2de0004427800614262004a
:103410000482fb00610262004322dd00b6168000d8
:1034200075ff2f008502630005027200b416880044
:103430009e02fb00040420000482620046a2de001b
:1034400004427800614262000482fb006102620073
:103450004222dd00b6168000b5ff2f008502630012
:1034600005027200b41688009e02fb0004022000d0
:103470000482620045a2de000442780061426200dc
:103480000482fb006102620004024200b616800062
:10349000d5ff2f008502630005027200b416880074
:1034a0001e02fb007002620044a2de0004427800ab
:1034b000614262000482fb0061026200b616800075
:1034c000e5ff2f008502630005027200b416880034
:1034d000ae030700cac2a800ac030700cac2a90015
:1034e000aa030700d1e2a800dd02a9001e02fb002a
:1034f0006802620043a2de0004427800614262007a
:103500000482fb00610262004322dd00b6168000e7
:1035100075ff2f008502630005027200b416880053
:103520001e02fb006402620042a2de000442780038
:10353000614262000482fb00610262004222dd00ff
:10354000b6168000b5ff2f008502630005027200e9
:10355000b41688001e02fb00620262000482d100e1
:1035600004427800614262000482fb006102620052
:1035700004024200b6168000d5ff2f0085026300ca
:1035800005027200b41688001e4278006142620093
:1035900061426200614262000482fb0061026200db
:1035a000b6168000e5ff2f00850263000502720059
:1035b000b416880075030700cac2a8007303070089
:1035c000cac2a90071030700d262a800d242a800b3
:1035d000d222a800d202a800dd02a900d1e2a900ef
:1035e0000080fa00000006000a00fa003007980088
:1035f000410798004e029000e60f52001f003c0069
:1036000004c4b300244798004e029000044278009e
:10361000350020000522dd0034479800ae429000be
:103620003e42900004c24200684242004447980073
:103630004e4090009dfe07000002eb00040f780052
:103640000002eb00040f7800070037001e0278002c
:10365000be029000048242001442780004407800c8
:103660005dff07001e0fe8001e027800e70f520002
:10367000f6ff340023fe07000100370000000000c1
:103680000080fa00000006000400fa00100798000d
:103690001e029000e60f520007003c001e02900040
:1036a000044278000442e800044f78001e4078008d
:1036b00049ff070001003700000000000080fa0009
:1036c000000006000000fa00841c80000480a100b5
:1036d0000490a10004a0a000841c88000000000049
:1036e000851c8000040e20008482620004082000f3
:1036f000848f5200faff3a009163a800951c800065
:1037000004fc2f0004826200941c8800941c80003a
:103710000460a1000470a100941c8800a41c800017
:103720000400a1000410a1000420a100a41c880032
:10373000a41c80000430a0000440a0000450a1009c
:10374000a41c8800a41c80000480a0000490a10098
:1037500004a0a100a41c88006e63a9008ee3a90048
:103760008e43a9008519800034002e000482620077
:10377000841988003003a8000518800034002e004a
:1037800004826200041888000003a9008f60a8006a
:103790008760a9000002eb00c41c88009803a80001
:1037a0009603a900841c80000480a1000490a1005d
:1037b00004a0a100841c880000000000851c80007b
:1037c000040e200004826200e00f5200fbff3a006a
:1037d0000080fa00000006000600fa00000f7800e2
:1037e00011079800220798006523a9006003a9002b
:1037f0001e02780004427800f443b200f443b200a1
:10380000f443b2008482fb00f403200004826200cf
:103810004222dd00061b800035f02f008502630088
:1038200005027200041b8800047c20001e02620056
:103830004622de00044278007f4262000482fb00e0
:103840004b22dd00061b8000f57f2000850263000f
:1038500005027200041b88002e02900004427800ca
:103860006f4262000482fb006f0262004322dd00af
:10387000261b800075f82f00850263000502720088
:10388000241b88002e0290006123b8000082eb0008
:103890008082eb000602420087824a007600200008
:1038a00007002000860f5200878f5a0044003e0018
:1038b000046001003a003700330037002900370068
:1038c00022003700180037001100370007003700ca
:1038d000000037001e029000670242001442780088
:1038e0000482fb004822dd00641b8800651b800009
:1038f00004f02f00848262001e02900066024200e3
:10390000144278000482fb0005027200641b8800e8
:103910001e02900065024200144278000482fb00ff
:103920004822dd00541b8800551b800004f02f0046
:10393000848262001e0290006402420014427800f9
:103940000482fb0005027200541b88001e029000d6
:1039500063024200144278000482fb004822dd002a
:10396000441b8800451b800004f02f008482620005
:103970001e0290000482e800144278000482fb00da
:1039800005027200441b88001e0290000402e80039
:10399000144278000482fb004822dd00341b8800ba
:1039a000351b800004f02f00848262001e0290000c
:1039b000144278000482fb0005027200341b880068
:1039c0006e63a80000000000741b800068026200a3
:1039d000e00f5200fcff3a000080fa0000000600f1
:1039e0000000fa00c602a900c622a900c642a9002a
:1039f000d202a800d222a800d242a800d262a80017
:103a00000080fa00000006000200fa000082eb00cd
:103a1000040f780003003700090007000002780057
:103a2000040f78001e027800e00f5200faff350004
:103a30001e027800040078000080fa0000000600f2
:103a40000000fa00ca02a900ca22a800ca42a800bf
:103a50004a020700a416800061026200e00f5200d3
:103a600002003a000002eb004b003700a416800071
:103a700062026200e00f520002003a0034002000af
:103a800045003700a416800064026200e00f520077
:103a900002003a00640020003f003700a4168000b6
:103aa00068026200e00f520002003a009400200019
:103ab00039003700ca02a800ca22a900ca42a800d9
:103ac0002e020700a416800061026200e00f52007f
:103ad00002003a00140020002f003700a4168000d6
:103ae00062026200e00f520002003a00440020002f
:103af00029003700a416800064026200e00f520023
:103b000002003a007400200023003700a416800051
:103b100068026200e00f520002003a00a400200098
:103b20001d003700ca02a800ca22a800ca42a90084
:103b300012020700a416800061026200e00f52002a
:103b400002003a002400200013003700a416800071
:103b500062026200e00f520002003a0054002000ae
:103b60000d003700a416800064026200e00f5200ce
:103b700002003a008400200007003700a4168000ed
:103b800068026200e00f520002003a00b400200018
:103b9000010037000082eb00040078000080fa008a
:103ba000000006000000fa00d802a900d822a900ef
:103bb000d842a900d862a900d882a900d8a2a90039
:103bc000dc02a900dc22a900dc42a900dc62a90019
:103bd000dc82a900dca2a9000080fa000000060037
:103be0000400fa00000f7800110798001e02780008
:103bf000cfa2de005600200007002000860f5200f2
:103c0000878f5a004e003e00046001000500370017
:103c10000f0037001a00370025003700300037004a
:103c20003b0037001e0290000442780061426200af
:103c30000482fb0061026200e6168000e5ff2f00af
:103c40008502630005027200e41688003c0037001c
:103c50001e02900004427800614262000482fb0070
:103c60006102620004024200e6168000d5ff2f00c8
:103c70008502630005027200e416880030003700f8
:103c80001e02900004427800614262000482fb0040
:103c9000610262004222dd00e6168000b5ff2f00bf
:103ca0008502630005027200e416880024003700d4
:103cb0001e02900004427800614262000482fb0010
:103cc000610262004322dd00e616800075ff2f00ce
:103cd0008502630005027200e416880018003700b0
:103ce0001e02900004427800614262000482fb00e0
:103cf000610262004422dd00e6168000f5fe2f001e
:103d00008502630005027200e41688000c0037008b
:103d10001e02900004427800614262000482fb00af
:103d2000610262004522dd00e6168000f5fd2f00ed
:103d30008502630005027200e4168800000000009e
:103d40000080fa00000006000000fa000002eb000c
:103d500064108800f2002000f17f2f0000fa2f008d
:103d6000abf107000080fa00000006000600fa0030
:103d70001007980021079800b0012000b1f107005a
:103d8000000000009df1070000427800e04f520063
:103d9000fcff3a00b0052000aaf107000000000077
:103da00096f1070000427800e04f5200fcff3a0015
:103db0000002eb00040f78000d0037001e027800af
:103dc000ae02900004824200144278000402fb001c
:103dd000040078009bf107000000000087f1070055
:103de00000427800e04f5200fcff3a001e0fe8004e
:103df0001e027800ae029000048242001442780055
:103e0000e04f5200edff3a00b00320008df10700b3
:103e10000000000079f1070000427800e04f5200f6
:103e2000fcff3a000002eb00040f78000d003700a1
:103e30001e0278009e029000048242001442780024
:103e40000402fb00040078007ef10700000000007f
:103e50006af1070000427800e04f5200fcff3a0090
:103e60001e0fe8001e0278009e02900004824200ad
:103e700014427800e04f5200edff3a008004200029
:103e800070f10700000000005cf1070000427800bc
:103e9000e04f5200fcff3a000080fa0000000600ec
:103ea0000200fa00004f78000000000053f1070004
:103eb00000427800e04f5200fcff3a001e02fb0077
:103ec000040078005ff107000080fa00000006009f
:103ed0000000fa0052f10700000278000442780066
:103ee000044078000080fa00000006000000fa009c
:103ef000c6e2a9000080fa00000006000000fa00f7
:103f0000cae2a9000080fa00000006000000fa00e2
:103f1000cae2a8000080fa00000006000000fa00d3
:103f200055168000040820000482620004f0a700f7
:103f30000402ea000402e9004f22de000442780095
:103f4000044078000080fa00000006001800fa0023
:103f5000200f9800310f98002e0a900005002000d5
:103f60000401be00006a2800110020003cf1070097
:103f70000002be0044079800550798004e029000ca
:103f8000de0290008502d1000482d300640798000d
:103f900075079800ae0a90003e0a900004aab90086
:103fa000040278000402d10005002000040f9800ec
:103fb000150f98006022b800048fbe002a00370059
:103fc000cae2a9006022b8002407980035079800cb
:103fd00007003700e90007002e029000be029000a3
:103fe00061024200e0824a002407980035079800e9
:103ff0002e039000be0390006e029000fe0290001f
:10400000840f5300858f5b00f2ff3900cae2a800dd
:104010006022b80024079800350798000700370091
:10402000d60007002e029000be02900061024200fe
:10403000e0824a0024079800350798002e0390007c
:10404000be0390006e029000fe029000840f5300a9
:10405000858f5b00f2ff390014002000050020006e
:104060001e0f42005e974a000e0a90009e0a9000c2
:104070001e03be00840f5300858f5b00d0ff390004
:084080000080fa0000000600b8
:020000040000fa
:104088000008000052000000000000005208000074
:104098000200000002000000dcdc00005408000000
:1040a800ca0000000200000030313200333435000d
:1040b8003637380039414200434445004600300055
:1040c80031323300343536003738390061626300e5
:1040d8006465660000286e00756c6c00290000009d
:1040e800010000000000000000000a0000000000bd
:1040f8000000000000640000000000000000000054
:10410800e803000000000000000010002700000085
:104118000000000000a08600010000000000000070
:1041280040420f0000000000000080009698000048
:10413800000000000000e100f5050000000000009c
:1041480000ca9a003b00000000000000e40b540085
:10415800020000000000e800764817000000000098
:104168000010a500d4e8000000000000a0724e0076
:1041780018090000000040007a10f3005a000000ff
:104188000080c600a47e8d000300000000c16f00ff
:10419800f2862300000000008a5d78004563010074
:1041a80000006400a7b3b600e00d000000e8890035
:1041b8000423c7008a0000001e0900002600000032
:1041c8000200000045090000004509000900000040
:1041d8000002000047090000004709000e02010024
:1041e80000000000000000000000000006020200bd
:1041f800000000001e09000044090000060000003d
:10420800000000004a09000002000000020000004f
:0842180001000000000000009d
:020000040000fa
:104220000000fa000002eb00240888000421a90025
:104230000002eb00040888000421a9008c60a8009b
:104240008460a9000080fa00000006000400fa0063
:10425000000f780021479800324798003e429000b6
:10426000674262000482fb00670262004c22dd00ac
:10427000a6048000f5ff2800850263000502720095
:10428000a40488002e429000634262000482fb0076
:10429000630262004422dd0026088000f5fc2f0046
:1042a0008502630005027200240888000002eb000a
:1042b000040888001e027800140888000080fa00b4
:1042c000000006000000fa0005e1a8000080fa00e6
:1042d000000006000000fa0005e1a9000002eb0062
:1042e000040888000080fa00000006000000fa00c0
:1042f000f4f72f00441588004400200004158800be
:1043000074002000341588000002eb00541588006a
:1043100024002000241588000002eb0014158800fa
:10432000a1e2a8000080fa00000006000200fa00e6
:104330000002eb00040f7800020037001b000700aa
:104340001e0fe8001e027800f30f5200fbff34003e
:10435000a022a90000000000041580006102620094
:10436000e00f5200fcff32000414800004007800cb
:104370000080fa0000000600000006003106200060
:104380008100e900feff3a0000000600610c2000f9
:104390008100e900feff3a0000000600215c2000d9
:1043a0008100e900feff3a000000060001002c0039
:1043b0008100e900feff3a000000060001002c0029
:1043c0008100e900feff3a0001002c008100e900b5
:1043d000feff3a0001002c008100e900feff3a00d8
:0443e00000000600d3
:00000001FF
